{
  "_format": "hh-sol-artifact-1",
  "contractName": "MultiChainDeployer",
  "sourceName": "contracts/MultiChainDeployer.sol",
  "abi": [
    {
      "inputs": [],
      "name": "EmptyBytecode",
      "type": "error"
    },
    {
      "inputs": [],
      "name": "FailedDeploy",
      "type": "error"
    },
    {
      "inputs": [],
      "name": "FailedInit",
      "type": "error"
    },
    {
      "inputs": [],
      "name": "InvalidAddress",
      "type": "error"
    },
    {
      "inputs": [],
      "name": "NotApprovedByGateway",
      "type": "error"
    },
    {
      "anonymous": false,
      "inputs": [
        {
          "indexed": false,
          "internalType": "address",
          "name": "deployedAddress_",
          "type": "address"
        },
        {
          "indexed": false,
          "internalType": "string[]",
          "name": "chainNames",
          "type": "string[]"
        }
      ],
      "name": "DeployStarted",
      "type": "event"
    },
    {
      "anonymous": false,
      "inputs": [
        {
          "indexed": true,
          "internalType": "bytes32",
          "name": "bytecodeHash",
          "type": "bytes32"
        },
        {
          "indexed": true,
          "internalType": "bytes32",
          "name": "salt",
          "type": "bytes32"
        },
        {
          "indexed": true,
          "internalType": "address",
          "name": "deployedAddress",
          "type": "address"
        }
      ],
      "name": "Deployed",
      "type": "event"
    },
    {
      "anonymous": false,
      "inputs": [
        {
          "indexed": false,
          "internalType": "uint8",
          "name": "version",
          "type": "uint8"
        }
      ],
      "name": "Initialized",
      "type": "event"
    },
    {
      "inputs": [
        {
          "internalType": "bytes",
          "name": "bytecode",
          "type": "bytes"
        },
        {
          "internalType": "bytes32",
          "name": "salt",
          "type": "bytes32"
        },
        {
          "internalType": "address",
          "name": "sender",
          "type": "address"
        }
      ],
      "name": "deploy",
      "outputs": [
        {
          "internalType": "address",
          "name": "deployedAddress_",
          "type": "address"
        }
      ],
      "stateMutability": "nonpayable",
      "type": "function"
    },
    {
      "inputs": [
        {
          "internalType": "bytes",
          "name": "bytecode",
          "type": "bytes"
        },
        {
          "internalType": "bytes32",
          "name": "salt",
          "type": "bytes32"
        },
        {
          "internalType": "bytes",
          "name": "init",
          "type": "bytes"
        },
        {
          "internalType": "address",
          "name": "sender",
          "type": "address"
        }
      ],
      "name": "deployAndInit",
      "outputs": [
        {
          "internalType": "address",
          "name": "deployedAddress_",
          "type": "address"
        }
      ],
      "stateMutability": "nonpayable",
      "type": "function"
    },
    {
      "inputs": [
        {
          "internalType": "bytes",
          "name": "bytecode",
          "type": "bytes"
        },
        {
          "internalType": "address",
          "name": "sender",
          "type": "address"
        },
        {
          "internalType": "bytes32",
          "name": "salt",
          "type": "bytes32"
        }
      ],
      "name": "deployedAddress",
      "outputs": [
        {
          "internalType": "address",
          "name": "deployedAddress_",
          "type": "address"
        }
      ],
      "stateMutability": "view",
      "type": "function"
    },
    {
      "inputs": [
        {
          "internalType": "bytes32",
          "name": "commandId",
          "type": "bytes32"
        },
        {
          "internalType": "string",
          "name": "sourceChain",
          "type": "string"
        },
        {
          "internalType": "string",
          "name": "sourceAddress",
          "type": "string"
        },
        {
          "internalType": "bytes",
          "name": "payload",
          "type": "bytes"
        }
      ],
      "name": "execute",
      "outputs": [],
      "stateMutability": "nonpayable",
      "type": "function"
    },
    {
      "inputs": [
        {
          "internalType": "bytes32",
          "name": "commandId",
          "type": "bytes32"
        },
        {
          "internalType": "string",
          "name": "sourceChain",
          "type": "string"
        },
        {
          "internalType": "string",
          "name": "sourceAddress",
          "type": "string"
        },
        {
          "internalType": "bytes",
          "name": "payload",
          "type": "bytes"
        },
        {
          "internalType": "string",
          "name": "tokenSymbol",
          "type": "string"
        },
        {
          "internalType": "uint256",
          "name": "amount",
          "type": "uint256"
        }
      ],
      "name": "executeWithToken",
      "outputs": [],
      "stateMutability": "nonpayable",
      "type": "function"
    },
    {
      "inputs": [],
      "name": "gasReceiver",
      "outputs": [
        {
          "internalType": "contract IAxelarGasService",
          "name": "",
          "type": "address"
        }
      ],
      "stateMutability": "view",
      "type": "function"
    },
    {
      "inputs": [],
      "name": "gateway",
      "outputs": [
        {
          "internalType": "contract IAxelarGateway",
          "name": "",
          "type": "address"
        }
      ],
      "stateMutability": "view",
      "type": "function"
    },
    {
      "inputs": [
        {
          "internalType": "address",
          "name": "gateway_",
          "type": "address"
        },
        {
          "internalType": "address",
          "name": "gasReceiver_",
          "type": "address"
        }
      ],
      "name": "initialize",
      "outputs": [],
      "stateMutability": "nonpayable",
      "type": "function"
    },
    {
      "inputs": [
        {
          "internalType": "bytes",
          "name": "bytecode",
          "type": "bytes"
        },
        {
          "internalType": "bytes32",
          "name": "salt",
          "type": "bytes32"
        },
        {
          "internalType": "string[]",
          "name": "chainNames",
          "type": "string[]"
        },
        {
          "internalType": "address[]",
          "name": "destinationAddresses",
          "type": "address[]"
        },
        {
          "internalType": "uint256[]",
          "name": "fees",
          "type": "uint256[]"
        }
      ],
      "name": "multiDeploy",
      "outputs": [
        {
          "internalType": "address",
          "name": "deployedAddress_",
          "type": "address"
        }
      ],
      "stateMutability": "payable",
      "type": "function"
    },
    {
      "inputs": [
        {
          "internalType": "bytes",
          "name": "bytecode",
          "type": "bytes"
        },
        {
          "internalType": "bytes32",
          "name": "salt",
          "type": "bytes32"
        },
        {
          "internalType": "string[]",
          "name": "chainNames",
          "type": "string[]"
        },
        {
          "internalType": "address[]",
          "name": "destinationAddresses",
          "type": "address[]"
        },
        {
          "internalType": "uint256[]",
          "name": "fees",
          "type": "uint256[]"
        },
        {
          "internalType": "bytes[]",
          "name": "inits",
          "type": "bytes[]"
        }
      ],
      "name": "multiDeployAndInit",
      "outputs": [
        {
          "internalType": "address",
          "name": "deployedAddress_",
          "type": "address"
        }
      ],
      "stateMutability": "payable",
      "type": "function"
    },
    {
      "stateMutability": "payable",
      "type": "receive"
    }
  ],
  "bytecode": "0x608060405234801561001057600080fd5b50611aef806100206000396000f3fe6080604052600436106100855760003560e01c806309acf0c114610091578063116191b6146100c05780631a98b2e0146100e6578063485cc9551461010f578063491606581461012f57806380d14b4a1461014f578063bd66e4361461016f578063c2b1041c1461018f578063dff66a15146101af578063ff84e54b146101cf57600080fd5b3661008c57005b600080fd5b6100a461009f366004611117565b6101e2565b6040516001600160a01b03909116815260200160405180910390f35b3480156100cc57600080fd5b506000546100a4906201000090046001600160a01b031681565b3480156100f257600080fd5b5061010d610101366004611215565b50505050505050505050565b005b34801561011b57600080fd5b5061010d61012a3660046112ee565b61040d565b34801561013b57600080fd5b5061010d61014a366004611327565b61055d565b34801561015b57600080fd5b506001546100a4906001600160a01b031681565b34801561017b57600080fd5b506100a461018a3660046113ca565b610729565b34801561019b57600080fd5b506100a46101aa366004611424565b610765565b3480156101bb57600080fd5b506100a46101ca366004611480565b61080c565b6100a46101dd36600461154b565b6108b1565b6000805b8451811015610363576040805180820190915260048152637468697360e01b6020909101528451600080516020611a9a8339815191529086908390811061022f5761022f611619565b602002602001015180519060200120036102b457604051635eb3721b60e11b8152309063bd66e4369061026a908a908a90339060040161167c565b6020604051808303816000875af1158015610289573d6000803e3d6000fd5b505050506040513d601f19601f820116820180604052508101906102ad91906116af565b9150610351565b6040805160208082018352600080835292516102d6928b928b923391016116cc565b604051602081830303815290604052905061034f8483815181106102fc576102fc611619565b602002602001015187848151811061031657610316611619565b602002602001015161034988868151811061033357610333611619565b60200260200101516001600160a01b0316610b03565b84610d3e565b505b8061035b81611727565b9150506101e6565b506001600160a01b0381166103dd576040516330ac410760e21b8152309063c2b1041c9061039990899033908a90600401611740565b602060405180830381865afa1580156103b6573d6000803e3d6000fd5b505050506040513d601f19601f820116820180604052508101906103da91906116af565b90505b600080516020611a7a83398151915281856040516103fc92919061176e565b60405180910390a195945050505050565b600054610100900460ff161580801561042d5750600054600160ff909116105b806104475750303b158015610447575060005460ff166001145b6104ae5760405162461bcd60e51b815260206004820152602e60248201527f496e697469616c697a61626c653a20636f6e747261637420697320616c72656160448201526d191e481a5b9a5d1a585b1a5e995960921b606482015260840160405180910390fd5b6000805460ff1916600117905580156104d1576000805461ff0019166101001790555b6000805462010000600160b01b031916620100006001600160a01b038681169190910291909117909155600180546001600160a01b0319169184169190911790558015610558576000805461ff0019169055604051600181527f7f26b83ff96e1f2b6a682f133852f6798a09c465da95921460cefb38474024989060200160405180910390a15b505050565b6000828260405161056f9291906117e0565b604051908190038120600054635f6970c360e01b83529092506201000090046001600160a01b031690635f6970c3906105b6908b908b908b908b908b908990600401611819565b6020604051808303816000875af11580156105d5573d6000803e3d6000fd5b505050506040513d601f19601f820116820180604052508101906105f9919061185a565b61061657604051631403112d60e21b815260040160405180910390fd5b60008080806106278688018861187c565b9350935093509350600080835111156106ad5760405163dff66a1560e01b8152309063dff66a15906106639088908890889088906004016116cc565b6020604051808303816000875af1158015610682573d6000803e3d6000fd5b505050506040513d601f19601f820116820180604052508101906106a691906116af565b905061071a565b604051635eb3721b60e11b8152309063bd66e436906106d49088908890879060040161167c565b6020604051808303816000875af11580156106f3573d6000803e3d6000fd5b505050506040513d601f19601f8201168201806040525081019061071791906116af565b90505b50505050505050505050505050565b600061075d8483856040516020016107429291906118fb565b60405160208183030381529060405280519060200120610e1b565b949350505050565b600080838360405160200161077b9291906118fb565b604051602081830303815290604052805190602001209050308187876040516107a59291906117e0565b6040519081900381206107ea9392916020016001600160f81b0319815260609390931b6001600160601b03191660018401526015830191909152603582015260550190565b60408051601f1981840301815291905280516020909101209695505050505050565b60006108258683876040516020016107429291906118fb565b90506000816001600160a01b031685856040516108439291906117e0565b6000604051808303816000865af19150503d8060008114610880576040519150601f19603f3d011682016040523d82523d6000602084013e610885565b606091505b50509050806108a757604051634f77232360e01b815260040160405180910390fd5b5095945050505050565b6000805b8651811015610a57576040805180820190915260048152637468697360e01b6020909101528651600080516020611a9a833981519152908890839081106108fe576108fe611619565b602002602001015180519060200120036109a9573063dff66a158a8a87878681811061092c5761092c611619565b905060200281019061093e9190611914565b336040518663ffffffff1660e01b815260040161095f95949392919061195a565b6020604051808303816000875af115801561097e573d6000803e3d6000fd5b505050506040513d601f19601f820116820180604052508101906109a291906116af565b9150610a45565b600089898686858181106109bf576109bf611619565b90506020028101906109d19190611914565b336040516020016109e695949392919061195a565b6040516020818303038152906040529050610a43868381518110610a0c57610a0c611619565b6020026020010151898481518110610a2657610a26611619565b60200260200101516103498a868151811061033357610333611619565b505b80610a4f81611727565b9150506108b5565b506001600160a01b038116610ad1576040516330ac410760e21b8152309063c2b1041c90610a8d908b9033908c90600401611740565b602060405180830381865afa158015610aaa573d6000803e3d6000fd5b505050506040513d601f19601f82011682018060405250810190610ace91906116af565b90505b600080516020611a7a8339815191528187604051610af092919061176e565b60405180910390a1979650505050505050565b604051606082811b6001600160601b03191660208301529060009060340160408051601f198184030181528282528051838301909252601083526f181899199a1a9b1b9c1cb0b131b232b360811b60208401528051909350909190600090610b6c9060026119a1565b610b779060026119c0565b6001600160401b03811115610b8e57610b8e610eb5565b6040519080825280601f01601f191660200182016040528015610bb8576020820181803683370190505b509050600360fc1b81600081518110610bd357610bd3611619565b60200101906001600160f81b031916908160001a905350600f60fb1b81600181518110610c0257610c02611619565b60200101906001600160f81b031916908160001a90535060005b838110156108a757826004868381518110610c3957610c39611619565b016020015182516001600160f81b031990911690911c60f81c908110610c6157610c61611619565b01602001516001600160f81b03191682610c7c8360026119a1565b610c879060026119c0565b81518110610c9757610c97611619565b60200101906001600160f81b031916908160001a90535082858281518110610cc157610cc1611619565b602091010151815160f89190911c600f16908110610ce157610ce1611619565b01602001516001600160f81b03191682610cfc8360026119a1565b610d079060036119c0565b81518110610d1757610d17611619565b60200101906001600160f81b031916908160001a905350610d3781611727565b9050610c1c565b600154604051630c93e3bb60e01b81526001600160a01b0390911690630c93e3bb908690610d7890309088908890889033906004016119d8565b6000604051808303818588803b158015610d9157600080fd5b505af1158015610da5573d6000803e3d6000fd5b5050600054604051631c92115f60e01b8152620100009091046001600160a01b03169350631c92115f9250610de39150869086908690600401611a36565b600060405180830381600087803b158015610dfd57600080fd5b505af1158015610e11573d6000803e3d6000fd5b5050505050505050565b60008251600003610e3f576040516321744a5960e01b815260040160405180910390fd5b818351602085016000f590506001600160a01b038116610e7257604051632081741d60e11b815260040160405180910390fd5b825160208401206040516001600160a01b0383169184917f27b8e3132afa95254770e1c1d214eafde52bc47d1b6e1f5dfcbb380c3ca3f53290600090a492915050565b634e487b7160e01b600052604160045260246000fd5b604051601f8201601f191681016001600160401b0381118282101715610ef357610ef3610eb5565b604052919050565b60006001600160401b03831115610f1457610f14610eb5565b610f27601f8401601f1916602001610ecb565b9050828152838383011115610f3b57600080fd5b828260208301376000602084830101529392505050565b600082601f830112610f6357600080fd5b610f7283833560208501610efb565b9392505050565b60006001600160401b03821115610f9257610f92610eb5565b5060051b60200190565b600082601f830112610fad57600080fd5b81356020610fc2610fbd83610f79565b610ecb565b82815260059290921b84018101918181019086841115610fe157600080fd5b8286015b848110156110355780356001600160401b038111156110045760008081fd5b8701603f810189136110165760008081fd5b611027898683013560408401610efb565b845250918301918301610fe5565b509695505050505050565b6001600160a01b038116811461105557600080fd5b50565b600082601f83011261106957600080fd5b81356020611079610fbd83610f79565b82815260059290921b8401810191818101908684111561109857600080fd5b8286015b848110156110355780356110af81611040565b835291830191830161109c565b600082601f8301126110cd57600080fd5b813560206110dd610fbd83610f79565b82815260059290921b840181019181810190868411156110fc57600080fd5b8286015b848110156110355780358352918301918301611100565b600080600080600060a0868803121561112f57600080fd5b85356001600160401b038082111561114657600080fd5b61115289838a01610f52565b965060208801359550604088013591508082111561116f57600080fd5b61117b89838a01610f9c565b9450606088013591508082111561119157600080fd5b61119d89838a01611058565b935060808801359150808211156111b357600080fd5b506111c0888289016110bc565b9150509295509295909350565b60008083601f8401126111df57600080fd5b5081356001600160401b038111156111f657600080fd5b60208301915083602082850101111561120e57600080fd5b9250929050565b60008060008060008060008060008060c08b8d03121561123457600080fd5b8a35995060208b01356001600160401b038082111561125257600080fd5b61125e8e838f016111cd565b909b50995060408d013591508082111561127757600080fd5b6112838e838f016111cd565b909950975060608d013591508082111561129c57600080fd5b6112a88e838f016111cd565b909750955060808d01359150808211156112c157600080fd5b506112ce8d828e016111cd565b9150809450508092505060a08b013590509295989b9194979a5092959850565b6000806040838503121561130157600080fd5b823561130c81611040565b9150602083013561131c81611040565b809150509250929050565b60008060008060008060006080888a03121561134257600080fd5b8735965060208801356001600160401b038082111561136057600080fd5b61136c8b838c016111cd565b909850965060408a013591508082111561138557600080fd5b6113918b838c016111cd565b909650945060608a01359150808211156113aa57600080fd5b506113b78a828b016111cd565b989b979a50959850939692959293505050565b6000806000606084860312156113df57600080fd5b83356001600160401b038111156113f557600080fd5b61140186828701610f52565b93505060208401359150604084013561141981611040565b809150509250925092565b6000806000806060858703121561143a57600080fd5b84356001600160401b0381111561145057600080fd5b61145c878288016111cd565b909550935050602085013561147081611040565b9396929550929360400135925050565b60008060008060006080868803121561149857600080fd5b85356001600160401b03808211156114af57600080fd5b6114bb89838a01610f52565b96506020880135955060408801359150808211156114d857600080fd5b506114e5888289016111cd565b90945092505060608601356114f981611040565b809150509295509295909350565b60008083601f84011261151957600080fd5b5081356001600160401b0381111561153057600080fd5b6020830191508360208260051b850101111561120e57600080fd5b600080600080600080600060c0888a03121561156657600080fd5b87356001600160401b038082111561157d57600080fd5b6115898b838c01610f52565b985060208a0135975060408a01359150808211156115a657600080fd5b6115b28b838c01610f9c565b965060608a01359150808211156115c857600080fd5b6115d48b838c01611058565b955060808a01359150808211156115ea57600080fd5b6115f68b838c016110bc565b945060a08a013591508082111561160c57600080fd5b506113b78a828b01611507565b634e487b7160e01b600052603260045260246000fd5b6000815180845260005b8181101561165557602081850181015186830182015201611639565b81811115611667576000602083870101525b50601f01601f19169290920160200192915050565b60608152600061168f606083018661162f565b6020830194909452506001600160a01b0391909116604090910152919050565b6000602082840312156116c157600080fd5b8151610f7281611040565b6080815260006116df608083018761162f565b85602084015282810360408401526116f7818661162f565b91505060018060a01b038316606083015295945050505050565b634e487b7160e01b600052601160045260246000fd5b60006001820161173957611739611711565b5060010190565b606081526000611753606083018661162f565b6001600160a01b039490941660208301525060400152919050565b60006040820160018060a01b0385168352602060408185015281855180845260608601915060608160051b870101935082870160005b828110156117d257605f198887030184526117c086835161162f565b955092840192908401906001016117a4565b509398975050505050505050565b8183823760009101908152919050565b81835281816020850137506000828201602090810191909152601f909101601f19169091010190565b8681526080602082015260006118336080830187896117f0565b82810360408401526118468186886117f0565b915050826060830152979650505050505050565b60006020828403121561186c57600080fd5b81518015158114610f7257600080fd5b6000806000806080858703121561189257600080fd5b84356001600160401b03808211156118a957600080fd5b6118b588838901610f52565b95506020870135945060408701359150808211156118d257600080fd5b506118df87828801610f52565b92505060608501356118f081611040565b939692955090935050565b6001600160a01b03929092168252602082015260400190565b6000808335601e1984360301811261192b57600080fd5b8301803591506001600160401b0382111561194557600080fd5b60200191503681900382131561120e57600080fd5b60808152600061196d608083018861162f565b86602084015282810360408401526119868186886117f0565b91505060018060a01b03831660608301529695505050505050565b60008160001904831182151516156119bb576119bb611711565b500290565b600082198211156119d3576119d3611711565b500190565b600060018060a01b03808816835260a060208401526119fa60a084018861162f565b8381036040850152611a0c818861162f565b90508381036060850152611a20818761162f565b9250508084166080840152509695505050505050565b606081526000611a49606083018661162f565b8281036020840152611a5b818661162f565b90508281036040840152611a6f818561162f565b969550505050505056fe652c93ee0f8466531492dd2a72f05360b762382c8b518c1eb33b49f0ca0b06b6644836c260d683d0efb62c716664c90d0889a2e6b72febd44cf5e90341bf5ac4a2646970667358221220d50a84f7792d9a67b8ce78260377bf1ba4cd0510140bf4e132ac3d4fbc2e821764736f6c634300080f0033",
  "linkReferences": {},
  "deployedLinkReferences": {}
}