{
  "_format": "hh-sol-artifact-1",
  "contractName": "AIrtNFT",
  "sourceName": "contracts/AIrtNFT.sol",
  "abi": [
    {
      "inputs": [],
      "stateMutability": "nonpayable",
      "type": "constructor"
    },
    {
      "anonymous": false,
      "inputs": [
        {
          "indexed": true,
          "internalType": "address",
          "name": "owner",
          "type": "address"
        },
        {
          "indexed": true,
          "internalType": "address",
          "name": "approved",
          "type": "address"
        },
        {
          "indexed": true,
          "internalType": "uint256",
          "name": "tokenId",
          "type": "uint256"
        }
      ],
      "name": "Approval",
      "type": "event"
    },
    {
      "anonymous": false,
      "inputs": [
        {
          "indexed": true,
          "internalType": "address",
          "name": "owner",
          "type": "address"
        },
        {
          "indexed": true,
          "internalType": "address",
          "name": "operator",
          "type": "address"
        },
        {
          "indexed": false,
          "internalType": "bool",
          "name": "approved",
          "type": "bool"
        }
      ],
      "name": "ApprovalForAll",
      "type": "event"
    },
    {
      "anonymous": false,
      "inputs": [
        {
          "indexed": false,
          "internalType": "uint8",
          "name": "version",
          "type": "uint8"
        }
      ],
      "name": "Initialized",
      "type": "event"
    },
    {
      "anonymous": false,
      "inputs": [
        {
          "indexed": true,
          "internalType": "address",
          "name": "previousOwner",
          "type": "address"
        },
        {
          "indexed": true,
          "internalType": "address",
          "name": "newOwner",
          "type": "address"
        }
      ],
      "name": "OwnershipTransferred",
      "type": "event"
    },
    {
      "anonymous": false,
      "inputs": [
        {
          "indexed": true,
          "internalType": "bytes32",
          "name": "role",
          "type": "bytes32"
        },
        {
          "indexed": true,
          "internalType": "bytes32",
          "name": "previousAdminRole",
          "type": "bytes32"
        },
        {
          "indexed": true,
          "internalType": "bytes32",
          "name": "newAdminRole",
          "type": "bytes32"
        }
      ],
      "name": "RoleAdminChanged",
      "type": "event"
    },
    {
      "anonymous": false,
      "inputs": [
        {
          "indexed": true,
          "internalType": "bytes32",
          "name": "role",
          "type": "bytes32"
        },
        {
          "indexed": true,
          "internalType": "address",
          "name": "account",
          "type": "address"
        },
        {
          "indexed": true,
          "internalType": "address",
          "name": "sender",
          "type": "address"
        }
      ],
      "name": "RoleGranted",
      "type": "event"
    },
    {
      "anonymous": false,
      "inputs": [
        {
          "indexed": true,
          "internalType": "bytes32",
          "name": "role",
          "type": "bytes32"
        },
        {
          "indexed": true,
          "internalType": "address",
          "name": "account",
          "type": "address"
        },
        {
          "indexed": true,
          "internalType": "address",
          "name": "sender",
          "type": "address"
        }
      ],
      "name": "RoleRevoked",
      "type": "event"
    },
    {
      "anonymous": false,
      "inputs": [
        {
          "indexed": true,
          "internalType": "address",
          "name": "from",
          "type": "address"
        },
        {
          "indexed": true,
          "internalType": "address",
          "name": "to",
          "type": "address"
        },
        {
          "indexed": true,
          "internalType": "uint256",
          "name": "tokenId",
          "type": "uint256"
        }
      ],
      "name": "Transfer",
      "type": "event"
    },
    {
      "inputs": [],
      "name": "DEFAULT_ADMIN_ROLE",
      "outputs": [
        {
          "internalType": "bytes32",
          "name": "",
          "type": "bytes32"
        }
      ],
      "stateMutability": "view",
      "type": "function"
    },
    {
      "inputs": [],
      "name": "MINTER_ROLE",
      "outputs": [
        {
          "internalType": "bytes32",
          "name": "",
          "type": "bytes32"
        }
      ],
      "stateMutability": "view",
      "type": "function"
    },
    {
      "inputs": [],
      "name": "TRANSPORTER_ROLE",
      "outputs": [
        {
          "internalType": "bytes32",
          "name": "",
          "type": "bytes32"
        }
      ],
      "stateMutability": "view",
      "type": "function"
    },
    {
      "inputs": [
        {
          "internalType": "address",
          "name": "to",
          "type": "address"
        },
        {
          "internalType": "uint256",
          "name": "tokenId",
          "type": "uint256"
        }
      ],
      "name": "approve",
      "outputs": [],
      "stateMutability": "nonpayable",
      "type": "function"
    },
    {
      "inputs": [
        {
          "internalType": "address",
          "name": "to",
          "type": "address"
        },
        {
          "internalType": "uint256",
          "name": "tokenId",
          "type": "uint256"
        }
      ],
      "name": "arrive",
      "outputs": [],
      "stateMutability": "nonpayable",
      "type": "function"
    },
    {
      "inputs": [
        {
          "internalType": "address",
          "name": "owner",
          "type": "address"
        }
      ],
      "name": "balanceOf",
      "outputs": [
        {
          "internalType": "uint256",
          "name": "",
          "type": "uint256"
        }
      ],
      "stateMutability": "view",
      "type": "function"
    },
    {
      "inputs": [
        {
          "internalType": "uint256",
          "name": "tokenId",
          "type": "uint256"
        }
      ],
      "name": "burn",
      "outputs": [],
      "stateMutability": "nonpayable",
      "type": "function"
    },
    {
      "inputs": [
        {
          "internalType": "uint256",
          "name": "tokenId",
          "type": "uint256"
        }
      ],
      "name": "depart",
      "outputs": [],
      "stateMutability": "nonpayable",
      "type": "function"
    },
    {
      "inputs": [
        {
          "internalType": "uint256",
          "name": "tokenId",
          "type": "uint256"
        }
      ],
      "name": "getApproved",
      "outputs": [
        {
          "internalType": "address",
          "name": "",
          "type": "address"
        }
      ],
      "stateMutability": "view",
      "type": "function"
    },
    {
      "inputs": [
        {
          "internalType": "bytes32",
          "name": "role",
          "type": "bytes32"
        }
      ],
      "name": "getRoleAdmin",
      "outputs": [
        {
          "internalType": "bytes32",
          "name": "",
          "type": "bytes32"
        }
      ],
      "stateMutability": "view",
      "type": "function"
    },
    {
      "inputs": [
        {
          "internalType": "bytes32",
          "name": "role",
          "type": "bytes32"
        },
        {
          "internalType": "address",
          "name": "account",
          "type": "address"
        }
      ],
      "name": "grantRole",
      "outputs": [],
      "stateMutability": "nonpayable",
      "type": "function"
    },
    {
      "inputs": [
        {
          "internalType": "bytes32",
          "name": "role",
          "type": "bytes32"
        },
        {
          "internalType": "address",
          "name": "account",
          "type": "address"
        }
      ],
      "name": "hasRole",
      "outputs": [
        {
          "internalType": "bool",
          "name": "",
          "type": "bool"
        }
      ],
      "stateMutability": "view",
      "type": "function"
    },
    {
      "inputs": [
        {
          "internalType": "string",
          "name": "_name",
          "type": "string"
        },
        {
          "internalType": "string",
          "name": "_symbol",
          "type": "string"
        },
        {
          "internalType": "address",
          "name": "_admin",
          "type": "address"
        },
        {
          "internalType": "address",
          "name": "_owner",
          "type": "address"
        }
      ],
      "name": "initialize",
      "outputs": [],
      "stateMutability": "nonpayable",
      "type": "function"
    },
    {
      "inputs": [
        {
          "internalType": "address",
          "name": "owner",
          "type": "address"
        },
        {
          "internalType": "address",
          "name": "operator",
          "type": "address"
        }
      ],
      "name": "isApprovedForAll",
      "outputs": [
        {
          "internalType": "bool",
          "name": "",
          "type": "bool"
        }
      ],
      "stateMutability": "view",
      "type": "function"
    },
    {
      "inputs": [
        {
          "internalType": "address",
          "name": "forwarder",
          "type": "address"
        }
      ],
      "name": "isTrustedForwarder",
      "outputs": [
        {
          "internalType": "bool",
          "name": "",
          "type": "bool"
        }
      ],
      "stateMutability": "view",
      "type": "function"
    },
    {
      "inputs": [],
      "name": "name",
      "outputs": [
        {
          "internalType": "string",
          "name": "",
          "type": "string"
        }
      ],
      "stateMutability": "view",
      "type": "function"
    },
    {
      "inputs": [],
      "name": "owner",
      "outputs": [
        {
          "internalType": "address",
          "name": "",
          "type": "address"
        }
      ],
      "stateMutability": "view",
      "type": "function"
    },
    {
      "inputs": [
        {
          "internalType": "uint256",
          "name": "tokenId",
          "type": "uint256"
        }
      ],
      "name": "ownerOf",
      "outputs": [
        {
          "internalType": "address",
          "name": "",
          "type": "address"
        }
      ],
      "stateMutability": "view",
      "type": "function"
    },
    {
      "inputs": [],
      "name": "pAInt",
      "outputs": [
        {
          "internalType": "contract IERC20",
          "name": "",
          "type": "address"
        }
      ],
      "stateMutability": "view",
      "type": "function"
    },
    {
      "inputs": [
        {
          "internalType": "address",
          "name": "creator",
          "type": "address"
        },
        {
          "internalType": "address",
          "name": "to",
          "type": "address"
        },
        {
          "internalType": "uint256",
          "name": "amount",
          "type": "uint256"
        },
        {
          "internalType": "address",
          "name": "currency",
          "type": "address"
        }
      ],
      "name": "publicMint",
      "outputs": [],
      "stateMutability": "nonpayable",
      "type": "function"
    },
    {
      "inputs": [],
      "name": "renounceOwnership",
      "outputs": [],
      "stateMutability": "nonpayable",
      "type": "function"
    },
    {
      "inputs": [
        {
          "internalType": "bytes32",
          "name": "role",
          "type": "bytes32"
        },
        {
          "internalType": "address",
          "name": "account",
          "type": "address"
        }
      ],
      "name": "renounceRole",
      "outputs": [],
      "stateMutability": "nonpayable",
      "type": "function"
    },
    {
      "inputs": [
        {
          "internalType": "bytes32",
          "name": "role",
          "type": "bytes32"
        },
        {
          "internalType": "address",
          "name": "account",
          "type": "address"
        }
      ],
      "name": "revokeRole",
      "outputs": [],
      "stateMutability": "nonpayable",
      "type": "function"
    },
    {
      "inputs": [
        {
          "internalType": "address",
          "name": "from",
          "type": "address"
        },
        {
          "internalType": "address",
          "name": "to",
          "type": "address"
        },
        {
          "internalType": "uint256",
          "name": "tokenId",
          "type": "uint256"
        }
      ],
      "name": "safeTransferFrom",
      "outputs": [],
      "stateMutability": "nonpayable",
      "type": "function"
    },
    {
      "inputs": [
        {
          "internalType": "address",
          "name": "from",
          "type": "address"
        },
        {
          "internalType": "address",
          "name": "to",
          "type": "address"
        },
        {
          "internalType": "uint256",
          "name": "tokenId",
          "type": "uint256"
        },
        {
          "internalType": "bytes",
          "name": "data",
          "type": "bytes"
        }
      ],
      "name": "safeTransferFrom",
      "outputs": [],
      "stateMutability": "nonpayable",
      "type": "function"
    },
    {
      "inputs": [
        {
          "internalType": "address",
          "name": "to",
          "type": "address"
        }
      ],
      "name": "selfMint",
      "outputs": [],
      "stateMutability": "nonpayable",
      "type": "function"
    },
    {
      "inputs": [
        {
          "internalType": "address",
          "name": "operator",
          "type": "address"
        },
        {
          "internalType": "bool",
          "name": "approved",
          "type": "bool"
        }
      ],
      "name": "setApprovalForAll",
      "outputs": [],
      "stateMutability": "nonpayable",
      "type": "function"
    },
    {
      "inputs": [
        {
          "internalType": "bytes4",
          "name": "interfaceId",
          "type": "bytes4"
        }
      ],
      "name": "supportsInterface",
      "outputs": [
        {
          "internalType": "bool",
          "name": "",
          "type": "bool"
        }
      ],
      "stateMutability": "view",
      "type": "function"
    },
    {
      "inputs": [],
      "name": "symbol",
      "outputs": [
        {
          "internalType": "string",
          "name": "",
          "type": "string"
        }
      ],
      "stateMutability": "view",
      "type": "function"
    },
    {
      "inputs": [
        {
          "internalType": "uint256",
          "name": "tokenId",
          "type": "uint256"
        }
      ],
      "name": "tokenURI",
      "outputs": [
        {
          "internalType": "string",
          "name": "",
          "type": "string"
        }
      ],
      "stateMutability": "view",
      "type": "function"
    },
    {
      "inputs": [
        {
          "internalType": "address",
          "name": "from",
          "type": "address"
        },
        {
          "internalType": "address",
          "name": "to",
          "type": "address"
        },
        {
          "internalType": "uint256",
          "name": "tokenId",
          "type": "uint256"
        }
      ],
      "name": "transferFrom",
      "outputs": [],
      "stateMutability": "nonpayable",
      "type": "function"
    },
    {
      "inputs": [
        {
          "internalType": "address",
          "name": "newOwner",
          "type": "address"
        }
      ],
      "name": "transferOwnership",
      "outputs": [],
      "stateMutability": "nonpayable",
      "type": "function"
    }
  ],
  "bytecode": "0x60a06040523480156200001157600080fd5b5073bf175fcc7086b4f9bd59d5eae8ea67b8f940de0d608052620000346200003a565b620000fc565b600054610100900460ff1615620000a75760405162461bcd60e51b815260206004820152602760248201527f496e697469616c697a61626c653a20636f6e747261637420697320696e697469604482015266616c697a696e6760c81b606482015260840160405180910390fd5b60005460ff9081161015620000fa576000805460ff191660ff9081179091556040519081527f7f26b83ff96e1f2b6a682f133852f6798a09c465da95921460cefb38474024989060200160405180910390a15b565b608051612c386200011f600039600081816103730152611a540152612c386000f3fe608060405234801561001057600080fd5b50600436106101f05760003560e01c806370a082311161010f578063a22cb465116100a2578063d539139311610071578063d53913931461049d578063d547741f146104c4578063e985e9c5146104d7578063f2fde38b1461051357600080fd5b8063a22cb46514610451578063a36bd7e514610464578063b88d4fde14610477578063c87b56dd1461048a57600080fd5b80638f15b414116100de5780638f15b414146103f557806391d148541461040857806395d89b4114610441578063a217fddf1461044957600080fd5b806370a08231146103b6578063715018a6146103c9578063765f1e86146103d15780638da5cb5b146103e457600080fd5b80632f2ff15d1161018757806343b6df661161015657806343b6df66146103295780634eabbe771461033c578063572b6c05146103635780636352211e146103a357600080fd5b80632f2ff15d146102dd57806336568abe146102f057806342842e0e1461030357806342966c681461031657600080fd5b806318618ce3116101c357806318618ce31461027257806323b872dd14610286578063248a9ca31461029957806324c23453146102ca57600080fd5b806301ffc9a7146101f557806306fdde031461021d578063081812fc14610232578063095ea7b31461025d575b600080fd5b6102086102033660046125ae565b610526565b60405190151581526020015b60405180910390f35b610225610537565b6040516102149190612623565b610245610240366004612636565b6105c9565b6040516001600160a01b039091168152602001610214565b61027061026b36600461266b565b6105f0565b005b61016054610245906001600160a01b031681565b610270610294366004612695565b610739565b6102bc6102a7366004612636565b600090815260c9602052604090206001015490565b604051908152602001610214565b6102706102d836600461266b565b6107b7565b6102706102eb3660046126d1565b610850565b6102706102fe3660046126d1565b610875565b610270610311366004612695565b610911565b610270610324366004612636565b61092c565b6102706103373660046126fd565b6109a5565b6102bc7fddaa901e2fe3bda354fe0ede2785152d5c109282a613fe024a056a3e66c41bb381565b6102086103713660046126fd565b7f00000000000000000000000000000000000000000000000000000000000000006001600160a01b0390811691161490565b6102456103b1366004612636565b610a01565b6102bc6103c43660046126fd565b610a66565b610270610b00565b6102706103df366004612636565b610b14565b60fb546001600160a01b0316610245565b610270610403366004612761565b610b47565b6102086104163660046126d1565b600091825260c9602090815260408084206001600160a01b0393909316845291905290205460ff1690565b610225610d77565b6102bc600081565b61027061045f3660046127ff565b610d86565b610270610472366004612836565b610d98565b610270610485366004612899565b610e07565b610225610498366004612636565b610e8c565b6102bc7f9f2df0fed2c77648de5860a4cc508cd0818c85b8b8a1ab4ceeef8d981c8956a681565b6102706104d23660046126d1565b610ef3565b6102086104e5366004612975565b6001600160a01b039182166000908152606a6020908152604080832093909416825291909152205460ff1690565b6102706105213660046126fd565b610f18565b600061053182610fa5565b92915050565b6060606580546105469061299f565b80601f01602080910402602001604051908101604052809291908181526020018280546105729061299f565b80156105bf5780601f10610594576101008083540402835291602001916105bf565b820191906000526020600020905b8154815290600101906020018083116105a257829003601f168201915b5050505050905090565b60006105d482610fe3565b506000908152606960205260409020546001600160a01b031690565b60006105fb82610a01565b9050806001600160a01b0316836001600160a01b0316141561068a5760405162461bcd60e51b815260206004820152602160248201527f4552433732313a20617070726f76616c20746f2063757272656e74206f776e6560448201527f720000000000000000000000000000000000000000000000000000000000000060648201526084015b60405180910390fd5b806001600160a01b031661069c611047565b6001600160a01b031614806106b857506106b8816104e5611047565b61072a5760405162461bcd60e51b815260206004820152603d60248201527f4552433732313a20617070726f76652063616c6c6572206973206e6f7420746f60448201527f6b656e206f776e6572206f7220617070726f76656420666f7220616c6c0000006064820152608401610681565b6107348383611056565b505050565b61074a610744611047565b826110c4565b6107ac5760405162461bcd60e51b815260206004820152602d60248201527f4552433732313a2063616c6c6572206973206e6f7420746f6b656e206f776e6560448201526c1c881bdc88185c1c1c9bdd9959609a1b6064820152608401610681565b610734838383611143565b7fddaa901e2fe3bda354fe0ede2785152d5c109282a613fe024a056a3e66c41bb36107e18161133c565b6000828152606760205260409020546001600160a01b0316156108465760405162461bcd60e51b815260206004820152600f60248201527f21616c72656164792065786973747300000000000000000000000000000000006044820152606401610681565b610734838361134d565b600082815260c9602052604090206001015461086b8161133c565b6107348383611367565b61087d611047565b6001600160a01b0316816001600160a01b0316146109035760405162461bcd60e51b815260206004820152602f60248201527f416363657373436f6e74726f6c3a2063616e206f6e6c792072656e6f756e636560448201527f20726f6c657320666f722073656c6600000000000000000000000000000000006064820152608401610681565b61090d828261140a565b5050565b61073483838360405180602001604052806000815250610e07565b610937610744611047565b6109995760405162461bcd60e51b815260206004820152602d60248201527f4552433732313a2063616c6c6572206973206e6f7420746f6b656e206f776e6560448201526c1c881bdc88185c1c1c9bdd9959609a1b6064820152608401610681565b6109a2816114ab565b50565b7f9f2df0fed2c77648de5860a4cc508cd0818c85b8b8a1ab4ceeef8d981c8956a66109cf8161133c565b6109f8826109db611047565b610160546001600160a01b03169190670de0b6b3a7640000611540565b61090d826115c8565b6000818152606760205260408120546001600160a01b0316806105315760405162461bcd60e51b815260206004820152601860248201527f4552433732313a20696e76616c696420746f6b656e20494400000000000000006044820152606401610681565b60006001600160a01b038216610ae45760405162461bcd60e51b815260206004820152602960248201527f4552433732313a2061646472657373207a65726f206973206e6f74206120766160448201527f6c6964206f776e657200000000000000000000000000000000000000000000006064820152608401610681565b506001600160a01b031660009081526068602052604090205490565b610b086115ef565b610b126000611668565b565b7fddaa901e2fe3bda354fe0ede2785152d5c109282a613fe024a056a3e66c41bb3610b3e8161133c565b61090d826114ab565b600054610100900460ff1615808015610b675750600054600160ff909116105b80610b815750303b158015610b81575060005460ff166001145b610bf35760405162461bcd60e51b815260206004820152602e60248201527f496e697469616c697a61626c653a20636f6e747261637420697320616c72656160448201527f647920696e697469616c697a65640000000000000000000000000000000000006064820152608401610681565b6000805460ff191660011790558015610c16576000805461ff0019166101001790555b610c8987878080601f01602080910402602001604051908101604052809392919081815260200183838082843760009201919091525050604080516020601f8b0181900481028201810190925289815292508991508890819084018382808284376000920191909152506116ba92505050565b610c9161172f565b610c9961172f565b61016080546001600160a01b03191673b66cf6eaf3a2f7c348e91bf1504d37a834abeb8a179055610ccb600084611367565b610cf57f9f2df0fed2c77648de5860a4cc508cd0818c85b8b8a1ab4ceeef8d981c8956a684611367565b610d1f7fddaa901e2fe3bda354fe0ede2785152d5c109282a613fe024a056a3e66c41bb384611367565b610d2882611668565b8015610d6e576000805461ff0019169055604051600181527f7f26b83ff96e1f2b6a682f133852f6798a09c465da95921460cefb38474024989060200160405180910390a15b50505050505050565b6060606680546105469061299f565b61090d610d91611047565b838361179a565b7f9f2df0fed2c77648de5860a4cc508cd0818c85b8b8a1ab4ceeef8d981c8956a6610dc28161133c565b600083118015610dda57506001600160a01b03821615155b15610df75781610df56001600160a01b038216868887611540565b505b610e00846115c8565b5050505050565b610e18610e12611047565b836110c4565b610e7a5760405162461bcd60e51b815260206004820152602d60248201527f4552433732313a2063616c6c6572206973206e6f7420746f6b656e206f776e6560448201526c1c881bdc88185c1c1c9bdd9959609a1b6064820152608401610681565b610e8684848484611869565b50505050565b6060610e9782610fe3565b6000610ea16118e7565b90506000815111610ec15760405180602001604052806000815250610eec565b80610ecb84611918565b604051602001610edc9291906129da565b6040516020818303038152906040525b9392505050565b600082815260c96020526040902060010154610f0e8161133c565b610734838361140a565b610f206115ef565b6001600160a01b038116610f9c5760405162461bcd60e51b815260206004820152602660248201527f4f776e61626c653a206e6577206f776e657220697320746865207a65726f206160448201527f64647265737300000000000000000000000000000000000000000000000000006064820152608401610681565b6109a281611668565b60006001600160e01b031982167f7965db0b0000000000000000000000000000000000000000000000000000000014806105315750610531826119b5565b6000818152606760205260409020546001600160a01b03166109a25760405162461bcd60e51b815260206004820152601860248201527f4552433732313a20696e76616c696420746f6b656e20494400000000000000006044820152606401610681565b6000611051611a50565b905090565b600081815260696020526040902080546001600160a01b0319166001600160a01b038416908117909155819061108b82610a01565b6001600160a01b03167f8c5be1e5ebec7d5bd14f71427d1e84f3dd0314c0f7b2291e5b200ac8c7c3b92560405160405180910390a45050565b6000806110d083610a01565b9050806001600160a01b0316846001600160a01b0316148061111757506001600160a01b038082166000908152606a602090815260408083209388168352929052205460ff165b8061113b5750836001600160a01b0316611130846105c9565b6001600160a01b0316145b949350505050565b826001600160a01b031661115682610a01565b6001600160a01b0316146111ba5760405162461bcd60e51b815260206004820152602560248201527f4552433732313a207472616e736665722066726f6d20696e636f72726563742060448201526437bbb732b960d91b6064820152608401610681565b6001600160a01b0382166112355760405162461bcd60e51b8152602060048201526024808201527f4552433732313a207472616e7366657220746f20746865207a65726f2061646460448201527f72657373000000000000000000000000000000000000000000000000000000006064820152608401610681565b826001600160a01b031661124882610a01565b6001600160a01b0316146112ac5760405162461bcd60e51b815260206004820152602560248201527f4552433732313a207472616e736665722066726f6d20696e636f72726563742060448201526437bbb732b960d91b6064820152608401610681565b600081815260696020908152604080832080546001600160a01b03199081169091556001600160a01b0387811680865260688552838620805460001901905590871680865283862080546001019055868652606790945282852080549092168417909155905184937fddf252ad1be2c89b69c2b068fc378daa952ba7f163c4a11628f55a4df523b3ef91a4505050565b6109a281611348611047565b611a95565b61090d828260405180602001604052806000815250611b0a565b600082815260c9602090815260408083206001600160a01b038516845290915290205460ff1661090d57600082815260c9602090815260408083206001600160a01b03851684529091529020805460ff191660011790556113c6611047565b6001600160a01b0316816001600160a01b0316837f2f8788117e7eff1d82e926ec794901d17c78024a50270940304540a733656f0d60405160405180910390a45050565b600082815260c9602090815260408083206001600160a01b038516845290915290205460ff161561090d57600082815260c9602090815260408083206001600160a01b03851684529091529020805460ff19169055611467611047565b6001600160a01b0316816001600160a01b0316837ff6391f5c32d9c69d2a47ea670b442974b53935d1edc7fd64eb21e047a839171b60405160405180910390a45050565b60006114b682610a01565b90506114c182610a01565b600083815260696020908152604080832080546001600160a01b03199081169091556001600160a01b0385168085526068845282852080546000190190558785526067909352818420805490911690555192935084927fddf252ad1be2c89b69c2b068fc378daa952ba7f163c4a11628f55a4df523b3ef908390a45050565b604080516001600160a01b0385811660248301528416604482015260648082018490528251808303909101815260849091019091526020810180517bffffffffffffffffffffffffffffffffffffffffffffffffffffffff167f23b872dd00000000000000000000000000000000000000000000000000000000179052610e86908590611b88565b60006115d461015f5490565b90506115e561015f80546001019055565b61090d828261134d565b6115f7611047565b6001600160a01b031661161260fb546001600160a01b031690565b6001600160a01b031614610b125760405162461bcd60e51b815260206004820181905260248201527f4f776e61626c653a2063616c6c6572206973206e6f7420746865206f776e65726044820152606401610681565b60fb80546001600160a01b038381166001600160a01b0319831681179093556040519116919082907f8be0079c531659141344cd1fd0a4f28419497f9722a3daafe3b4186f6b6457e090600090a35050565b600054610100900460ff166117255760405162461bcd60e51b815260206004820152602b60248201527f496e697469616c697a61626c653a20636f6e7472616374206973206e6f74206960448201526a6e697469616c697a696e6760a81b6064820152608401610681565b61090d8282611c6d565b600054610100900460ff16610b125760405162461bcd60e51b815260206004820152602b60248201527f496e697469616c697a61626c653a20636f6e7472616374206973206e6f74206960448201526a6e697469616c697a696e6760a81b6064820152608401610681565b816001600160a01b0316836001600160a01b031614156117fc5760405162461bcd60e51b815260206004820152601960248201527f4552433732313a20617070726f766520746f2063616c6c6572000000000000006044820152606401610681565b6001600160a01b038381166000818152606a6020908152604080832094871680845294825291829020805460ff191686151590811790915591519182527f17307eab39ab6107e8899845ad3d59bd9653f200f220920489ca2b5937696c31910160405180910390a3505050565b611874848484611143565b61188084848484611cff565b610e865760405162461bcd60e51b815260206004820152603260248201527f4552433732313a207472616e7366657220746f206e6f6e20455243373231526560448201527131b2b4bb32b91034b6b83632b6b2b73a32b960711b6064820152608401610681565b60606118f4306014611e77565b6040516020016119049190612a09565b604051602081830303815290604052905090565b6060600061192583612013565b600101905060008167ffffffffffffffff81111561194557611945612883565b6040519080825280601f01601f19166020018201604052801561196f576020820181803683370190505b5090508181016020015b600019016f181899199a1a9b1b9c1cb0b131b232b360811b600a86061a8153600a85049450846119a8576119ad565b611979565b509392505050565b60006001600160e01b031982167f80ac58cd000000000000000000000000000000000000000000000000000000001480611a1857506001600160e01b031982167f5b5e139f00000000000000000000000000000000000000000000000000000000145b8061053157507f01ffc9a7000000000000000000000000000000000000000000000000000000006001600160e01b0319831614610531565b60007f00000000000000000000000000000000000000000000000000000000000000006001600160a01b0316331415611a90575060131936013560601c90565b503390565b600082815260c9602090815260408083206001600160a01b038516845290915290205460ff1661090d57611ac8816120f5565b611ad3836020612107565b604051602001611ae4929190612a75565b60408051601f198184030181529082905262461bcd60e51b825261068191600401612623565b611b148383612254565b611b216000848484611cff565b6107345760405162461bcd60e51b815260206004820152603260248201527f4552433732313a207472616e7366657220746f206e6f6e20455243373231526560448201527131b2b4bb32b91034b6b83632b6b2b73a32b960711b6064820152608401610681565b6000611bdd826040518060400160405280602081526020017f5361666545524332303a206c6f772d6c6576656c2063616c6c206661696c6564815250856001600160a01b03166123df9092919063ffffffff16565b8051909150156107345780806020019051810190611bfb9190612af6565b6107345760405162461bcd60e51b815260206004820152602a60248201527f5361666545524332303a204552433230206f7065726174696f6e20646964206e60448201527f6f742073756363656564000000000000000000000000000000000000000000006064820152608401610681565b600054610100900460ff16611cd85760405162461bcd60e51b815260206004820152602b60248201527f496e697469616c697a61626c653a20636f6e7472616374206973206e6f74206960448201526a6e697469616c697a696e6760a81b6064820152608401610681565b8151611ceb9060659060208501906124ff565b5080516107349060669060208401906124ff565b60006001600160a01b0384163b15611e6c57836001600160a01b031663150b7a02611d28611047565b8786866040518563ffffffff1660e01b8152600401611d4a9493929190612b13565b602060405180830381600087803b158015611d6457600080fd5b505af1925050508015611d94575060408051601f3d908101601f19168201909252611d9191810190612b4f565b60015b611e39573d808015611dc2576040519150601f19603f3d011682016040523d82523d6000602084013e611dc7565b606091505b508051611e315760405162461bcd60e51b815260206004820152603260248201527f4552433732313a207472616e7366657220746f206e6f6e20455243373231526560448201527131b2b4bb32b91034b6b83632b6b2b73a32b960711b6064820152608401610681565b805181602001fd5b6001600160e01b0319167f150b7a020000000000000000000000000000000000000000000000000000000014905061113b565b506001949350505050565b60606000611e86836002612b82565b611e91906002612ba1565b67ffffffffffffffff811115611ea957611ea9612883565b6040519080825280601f01601f191660200182016040528015611ed3576020820181803683370190505b509050600360fc1b81600081518110611eee57611eee612bb9565b60200101906001600160f81b031916908160001a905350600f60fb1b81600181518110611f1d57611f1d612bb9565b60200101906001600160f81b031916908160001a9053506000611f41846002612b82565b611f4c906001612ba1565b90505b6001811115611fc4576f181899199a1a9b1b9c1cb0b131b232b360811b85600f1660108110611f8057611f80612bb9565b1a60f81b828281518110611f9657611f96612bb9565b60200101906001600160f81b031916908160001a90535060049490941c93611fbd81612bcf565b9050611f4f565b508315610eec5760405162461bcd60e51b815260206004820181905260248201527f537472696e67733a20686578206c656e67746820696e73756666696369656e746044820152606401610681565b6000807a184f03e93ff9f4daa797ed6e38ed64bf6a1f010000000000000000831061205c577a184f03e93ff9f4daa797ed6e38ed64bf6a1f010000000000000000830492506040015b6d04ee2d6d415b85acef81000000008310612088576d04ee2d6d415b85acef8100000000830492506020015b662386f26fc1000083106120a657662386f26fc10000830492506010015b6305f5e10083106120be576305f5e100830492506008015b61271083106120d257612710830492506004015b606483106120e4576064830492506002015b600a83106105315760010192915050565b60606105316001600160a01b03831660145b60606000612116836002612b82565b612121906002612ba1565b67ffffffffffffffff81111561213957612139612883565b6040519080825280601f01601f191660200182016040528015612163576020820181803683370190505b509050600360fc1b8160008151811061217e5761217e612bb9565b60200101906001600160f81b031916908160001a905350600f60fb1b816001815181106121ad576121ad612bb9565b60200101906001600160f81b031916908160001a90535060006121d1846002612b82565b6121dc906001612ba1565b90505b6001811115611fc4576f181899199a1a9b1b9c1cb0b131b232b360811b85600f166010811061221057612210612bb9565b1a60f81b82828151811061222657612226612bb9565b60200101906001600160f81b031916908160001a90535060049490941c9361224d81612bcf565b90506121df565b6001600160a01b0382166122aa5760405162461bcd60e51b815260206004820181905260248201527f4552433732313a206d696e7420746f20746865207a65726f20616464726573736044820152606401610681565b6000818152606760205260409020546001600160a01b03161561230f5760405162461bcd60e51b815260206004820152601c60248201527f4552433732313a20746f6b656e20616c7265616479206d696e746564000000006044820152606401610681565b6000818152606760205260409020546001600160a01b0316156123745760405162461bcd60e51b815260206004820152601c60248201527f4552433732313a20746f6b656e20616c7265616479206d696e746564000000006044820152606401610681565b6001600160a01b038216600081815260686020908152604080832080546001019055848352606790915280822080546001600160a01b0319168417905551839291907fddf252ad1be2c89b69c2b068fc378daa952ba7f163c4a11628f55a4df523b3ef908290a45050565b606061113b848460008585600080866001600160a01b031685876040516124069190612be6565b60006040518083038185875af1925050503d8060008114612443576040519150601f19603f3d011682016040523d82523d6000602084013e612448565b606091505b509150915061245987838387612464565b979650505050505050565b606083156124d05782516124c9576001600160a01b0385163b6124c95760405162461bcd60e51b815260206004820152601d60248201527f416464726573733a2063616c6c20746f206e6f6e2d636f6e74726163740000006044820152606401610681565b508161113b565b61113b83838151156124e55781518083602001fd5b8060405162461bcd60e51b81526004016106819190612623565b82805461250b9061299f565b90600052602060002090601f01602090048101928261252d5760008555612573565b82601f1061254657805160ff1916838001178555612573565b82800160010185558215612573579182015b82811115612573578251825591602001919060010190612558565b5061257f929150612583565b5090565b5b8082111561257f5760008155600101612584565b6001600160e01b0319811681146109a257600080fd5b6000602082840312156125c057600080fd5b8135610eec81612598565b60005b838110156125e65781810151838201526020016125ce565b83811115610e865750506000910152565b6000815180845261260f8160208601602086016125cb565b601f01601f19169290920160200192915050565b602081526000610eec60208301846125f7565b60006020828403121561264857600080fd5b5035919050565b80356001600160a01b038116811461266657600080fd5b919050565b6000806040838503121561267e57600080fd5b6126878361264f565b946020939093013593505050565b6000806000606084860312156126aa57600080fd5b6126b38461264f565b92506126c16020850161264f565b9150604084013590509250925092565b600080604083850312156126e457600080fd5b823591506126f46020840161264f565b90509250929050565b60006020828403121561270f57600080fd5b610eec8261264f565b60008083601f84011261272a57600080fd5b50813567ffffffffffffffff81111561274257600080fd5b60208301915083602082850101111561275a57600080fd5b9250929050565b6000806000806000806080878903121561277a57600080fd5b863567ffffffffffffffff8082111561279257600080fd5b61279e8a838b01612718565b909850965060208901359150808211156127b757600080fd5b506127c489828a01612718565b90955093506127d790506040880161264f565b91506127e56060880161264f565b90509295509295509295565b80151581146109a257600080fd5b6000806040838503121561281257600080fd5b61281b8361264f565b9150602083013561282b816127f1565b809150509250929050565b6000806000806080858703121561284c57600080fd5b6128558561264f565b93506128636020860161264f565b9250604085013591506128786060860161264f565b905092959194509250565b634e487b7160e01b600052604160045260246000fd5b600080600080608085870312156128af57600080fd5b6128b88561264f565b93506128c66020860161264f565b925060408501359150606085013567ffffffffffffffff808211156128ea57600080fd5b818701915087601f8301126128fe57600080fd5b81358181111561291057612910612883565b604051601f8201601f19908116603f0116810190838211818310171561293857612938612883565b816040528281528a602084870101111561295157600080fd5b82602086016020830137600060208483010152809550505050505092959194509250565b6000806040838503121561298857600080fd5b6129918361264f565b91506126f46020840161264f565b600181811c908216806129b357607f821691505b602082108114156129d457634e487b7160e01b600052602260045260246000fd5b50919050565b600083516129ec8184602088016125cb565b835190830190612a008183602088016125cb565b01949350505050565b7f68747470733a2f2f6170692e616972746973742e78797a2f6d6574612f000000815260008251612a4181601d8501602087016125cb565b7f2f00000000000000000000000000000000000000000000000000000000000000601d939091019283015250601e01919050565b7f416363657373436f6e74726f6c3a206163636f756e7420000000000000000000815260008351612aad8160178501602088016125cb565b7f206973206d697373696e6720726f6c65200000000000000000000000000000006017918401918201528351612aea8160288401602088016125cb565b01602801949350505050565b600060208284031215612b0857600080fd5b8151610eec816127f1565b60006001600160a01b03808716835280861660208401525083604083015260806060830152612b4560808301846125f7565b9695505050505050565b600060208284031215612b6157600080fd5b8151610eec81612598565b634e487b7160e01b600052601160045260246000fd5b6000816000190483118215151615612b9c57612b9c612b6c565b500290565b60008219821115612bb457612bb4612b6c565b500190565b634e487b7160e01b600052603260045260246000fd5b600081612bde57612bde612b6c565b506000190190565b60008251612bf88184602087016125cb565b919091019291505056fea26469706673582212207c31ac9c7c861f0957c4eb872391b71ddf921d292c581c160794f830bb7b001564736f6c63430008090033",
  "linkReferences": {},
  "deployedLinkReferences": {}
}