{
  "_format": "hh-sol-artifact-1",
  "contractName": "AIrtNFT",
  "sourceName": "contracts/AIrtNFT.sol",
  "abi": [
    {
      "inputs": [],
      "stateMutability": "nonpayable",
      "type": "constructor"
    },
    {
      "anonymous": false,
      "inputs": [
        {
          "indexed": true,
          "internalType": "address",
          "name": "owner",
          "type": "address"
        },
        {
          "indexed": true,
          "internalType": "address",
          "name": "approved",
          "type": "address"
        },
        {
          "indexed": true,
          "internalType": "uint256",
          "name": "tokenId",
          "type": "uint256"
        }
      ],
      "name": "Approval",
      "type": "event"
    },
    {
      "anonymous": false,
      "inputs": [
        {
          "indexed": true,
          "internalType": "address",
          "name": "owner",
          "type": "address"
        },
        {
          "indexed": true,
          "internalType": "address",
          "name": "operator",
          "type": "address"
        },
        {
          "indexed": false,
          "internalType": "bool",
          "name": "approved",
          "type": "bool"
        }
      ],
      "name": "ApprovalForAll",
      "type": "event"
    },
    {
      "anonymous": false,
      "inputs": [
        {
          "indexed": false,
          "internalType": "uint8",
          "name": "version",
          "type": "uint8"
        }
      ],
      "name": "Initialized",
      "type": "event"
    },
    {
      "anonymous": false,
      "inputs": [
        {
          "indexed": true,
          "internalType": "bytes32",
          "name": "role",
          "type": "bytes32"
        },
        {
          "indexed": true,
          "internalType": "bytes32",
          "name": "previousAdminRole",
          "type": "bytes32"
        },
        {
          "indexed": true,
          "internalType": "bytes32",
          "name": "newAdminRole",
          "type": "bytes32"
        }
      ],
      "name": "RoleAdminChanged",
      "type": "event"
    },
    {
      "anonymous": false,
      "inputs": [
        {
          "indexed": true,
          "internalType": "bytes32",
          "name": "role",
          "type": "bytes32"
        },
        {
          "indexed": true,
          "internalType": "address",
          "name": "account",
          "type": "address"
        },
        {
          "indexed": true,
          "internalType": "address",
          "name": "sender",
          "type": "address"
        }
      ],
      "name": "RoleGranted",
      "type": "event"
    },
    {
      "anonymous": false,
      "inputs": [
        {
          "indexed": true,
          "internalType": "bytes32",
          "name": "role",
          "type": "bytes32"
        },
        {
          "indexed": true,
          "internalType": "address",
          "name": "account",
          "type": "address"
        },
        {
          "indexed": true,
          "internalType": "address",
          "name": "sender",
          "type": "address"
        }
      ],
      "name": "RoleRevoked",
      "type": "event"
    },
    {
      "anonymous": false,
      "inputs": [
        {
          "indexed": true,
          "internalType": "address",
          "name": "from",
          "type": "address"
        },
        {
          "indexed": true,
          "internalType": "address",
          "name": "to",
          "type": "address"
        },
        {
          "indexed": true,
          "internalType": "uint256",
          "name": "tokenId",
          "type": "uint256"
        }
      ],
      "name": "Transfer",
      "type": "event"
    },
    {
      "inputs": [],
      "name": "DEFAULT_ADMIN_ROLE",
      "outputs": [
        {
          "internalType": "bytes32",
          "name": "",
          "type": "bytes32"
        }
      ],
      "stateMutability": "view",
      "type": "function"
    },
    {
      "inputs": [],
      "name": "MINTER_ROLE",
      "outputs": [
        {
          "internalType": "bytes32",
          "name": "",
          "type": "bytes32"
        }
      ],
      "stateMutability": "view",
      "type": "function"
    },
    {
      "inputs": [
        {
          "internalType": "address",
          "name": "to",
          "type": "address"
        },
        {
          "internalType": "uint256",
          "name": "tokenId",
          "type": "uint256"
        }
      ],
      "name": "approve",
      "outputs": [],
      "stateMutability": "nonpayable",
      "type": "function"
    },
    {
      "inputs": [
        {
          "internalType": "address",
          "name": "owner",
          "type": "address"
        }
      ],
      "name": "balanceOf",
      "outputs": [
        {
          "internalType": "uint256",
          "name": "",
          "type": "uint256"
        }
      ],
      "stateMutability": "view",
      "type": "function"
    },
    {
      "inputs": [
        {
          "internalType": "uint256",
          "name": "tokenId",
          "type": "uint256"
        }
      ],
      "name": "burn",
      "outputs": [],
      "stateMutability": "nonpayable",
      "type": "function"
    },
    {
      "inputs": [
        {
          "internalType": "uint256",
          "name": "tokenId",
          "type": "uint256"
        }
      ],
      "name": "getApproved",
      "outputs": [
        {
          "internalType": "address",
          "name": "",
          "type": "address"
        }
      ],
      "stateMutability": "view",
      "type": "function"
    },
    {
      "inputs": [
        {
          "internalType": "bytes32",
          "name": "role",
          "type": "bytes32"
        }
      ],
      "name": "getRoleAdmin",
      "outputs": [
        {
          "internalType": "bytes32",
          "name": "",
          "type": "bytes32"
        }
      ],
      "stateMutability": "view",
      "type": "function"
    },
    {
      "inputs": [
        {
          "internalType": "bytes32",
          "name": "role",
          "type": "bytes32"
        },
        {
          "internalType": "address",
          "name": "account",
          "type": "address"
        }
      ],
      "name": "grantRole",
      "outputs": [],
      "stateMutability": "nonpayable",
      "type": "function"
    },
    {
      "inputs": [
        {
          "internalType": "bytes32",
          "name": "role",
          "type": "bytes32"
        },
        {
          "internalType": "address",
          "name": "account",
          "type": "address"
        }
      ],
      "name": "hasRole",
      "outputs": [
        {
          "internalType": "bool",
          "name": "",
          "type": "bool"
        }
      ],
      "stateMutability": "view",
      "type": "function"
    },
    {
      "inputs": [
        {
          "internalType": "string",
          "name": "_name",
          "type": "string"
        },
        {
          "internalType": "string",
          "name": "_symbol",
          "type": "string"
        },
        {
          "internalType": "address",
          "name": "_owner",
          "type": "address"
        }
      ],
      "name": "initialize",
      "outputs": [],
      "stateMutability": "nonpayable",
      "type": "function"
    },
    {
      "inputs": [
        {
          "internalType": "address",
          "name": "owner",
          "type": "address"
        },
        {
          "internalType": "address",
          "name": "operator",
          "type": "address"
        }
      ],
      "name": "isApprovedForAll",
      "outputs": [
        {
          "internalType": "bool",
          "name": "",
          "type": "bool"
        }
      ],
      "stateMutability": "view",
      "type": "function"
    },
    {
      "inputs": [
        {
          "internalType": "address",
          "name": "forwarder",
          "type": "address"
        }
      ],
      "name": "isTrustedForwarder",
      "outputs": [
        {
          "internalType": "bool",
          "name": "",
          "type": "bool"
        }
      ],
      "stateMutability": "view",
      "type": "function"
    },
    {
      "inputs": [],
      "name": "name",
      "outputs": [
        {
          "internalType": "string",
          "name": "",
          "type": "string"
        }
      ],
      "stateMutability": "view",
      "type": "function"
    },
    {
      "inputs": [
        {
          "internalType": "uint256",
          "name": "tokenId",
          "type": "uint256"
        }
      ],
      "name": "ownerOf",
      "outputs": [
        {
          "internalType": "address",
          "name": "",
          "type": "address"
        }
      ],
      "stateMutability": "view",
      "type": "function"
    },
    {
      "inputs": [],
      "name": "pAInt",
      "outputs": [
        {
          "internalType": "contract IERC20",
          "name": "",
          "type": "address"
        }
      ],
      "stateMutability": "view",
      "type": "function"
    },
    {
      "inputs": [
        {
          "internalType": "address",
          "name": "creator",
          "type": "address"
        },
        {
          "internalType": "address",
          "name": "to",
          "type": "address"
        },
        {
          "internalType": "uint256",
          "name": "amount",
          "type": "uint256"
        },
        {
          "internalType": "address",
          "name": "currency",
          "type": "address"
        }
      ],
      "name": "publicMint",
      "outputs": [],
      "stateMutability": "nonpayable",
      "type": "function"
    },
    {
      "inputs": [
        {
          "internalType": "bytes32",
          "name": "role",
          "type": "bytes32"
        },
        {
          "internalType": "address",
          "name": "account",
          "type": "address"
        }
      ],
      "name": "renounceRole",
      "outputs": [],
      "stateMutability": "nonpayable",
      "type": "function"
    },
    {
      "inputs": [
        {
          "internalType": "bytes32",
          "name": "role",
          "type": "bytes32"
        },
        {
          "internalType": "address",
          "name": "account",
          "type": "address"
        }
      ],
      "name": "revokeRole",
      "outputs": [],
      "stateMutability": "nonpayable",
      "type": "function"
    },
    {
      "inputs": [
        {
          "internalType": "address",
          "name": "from",
          "type": "address"
        },
        {
          "internalType": "address",
          "name": "to",
          "type": "address"
        },
        {
          "internalType": "uint256",
          "name": "tokenId",
          "type": "uint256"
        }
      ],
      "name": "safeTransferFrom",
      "outputs": [],
      "stateMutability": "nonpayable",
      "type": "function"
    },
    {
      "inputs": [
        {
          "internalType": "address",
          "name": "from",
          "type": "address"
        },
        {
          "internalType": "address",
          "name": "to",
          "type": "address"
        },
        {
          "internalType": "uint256",
          "name": "tokenId",
          "type": "uint256"
        },
        {
          "internalType": "bytes",
          "name": "data",
          "type": "bytes"
        }
      ],
      "name": "safeTransferFrom",
      "outputs": [],
      "stateMutability": "nonpayable",
      "type": "function"
    },
    {
      "inputs": [
        {
          "internalType": "address",
          "name": "to",
          "type": "address"
        }
      ],
      "name": "selfMint",
      "outputs": [],
      "stateMutability": "nonpayable",
      "type": "function"
    },
    {
      "inputs": [
        {
          "internalType": "address",
          "name": "operator",
          "type": "address"
        },
        {
          "internalType": "bool",
          "name": "approved",
          "type": "bool"
        }
      ],
      "name": "setApprovalForAll",
      "outputs": [],
      "stateMutability": "nonpayable",
      "type": "function"
    },
    {
      "inputs": [
        {
          "internalType": "bytes4",
          "name": "interfaceId",
          "type": "bytes4"
        }
      ],
      "name": "supportsInterface",
      "outputs": [
        {
          "internalType": "bool",
          "name": "",
          "type": "bool"
        }
      ],
      "stateMutability": "view",
      "type": "function"
    },
    {
      "inputs": [],
      "name": "symbol",
      "outputs": [
        {
          "internalType": "string",
          "name": "",
          "type": "string"
        }
      ],
      "stateMutability": "view",
      "type": "function"
    },
    {
      "inputs": [
        {
          "internalType": "uint256",
          "name": "tokenId",
          "type": "uint256"
        }
      ],
      "name": "tokenURI",
      "outputs": [
        {
          "internalType": "string",
          "name": "",
          "type": "string"
        }
      ],
      "stateMutability": "view",
      "type": "function"
    },
    {
      "inputs": [
        {
          "internalType": "address",
          "name": "from",
          "type": "address"
        },
        {
          "internalType": "address",
          "name": "to",
          "type": "address"
        },
        {
          "internalType": "uint256",
          "name": "tokenId",
          "type": "uint256"
        }
      ],
      "name": "transferFrom",
      "outputs": [],
      "stateMutability": "nonpayable",
      "type": "function"
    }
  ],
  "bytecode": "0x60a06040523480156200001157600080fd5b5073bf175fcc7086b4f9bd59d5eae8ea67b8f940de0d608052620000346200003a565b620000fc565b600054610100900460ff1615620000a75760405162461bcd60e51b815260206004820152602760248201527f496e697469616c697a61626c653a20636f6e747261637420697320696e697469604482015266616c697a696e6760c81b606482015260840160405180910390fd5b60005460ff9081161015620000fa576000805460ff191660ff9081179091556040519081527f7f26b83ff96e1f2b6a682f133852f6798a09c465da95921460cefb38474024989060200160405180910390a15b565b6080516129806200011f6000396000818161030a01526117a701526129806000f3fe608060405234801561001057600080fd5b50600436106101ae5760003560e01c8063572b6c05116100ee578063a22cb46511610097578063c87b56dd11610071578063c87b56dd146103e2578063d5391393146103f5578063d547741f1461041c578063e985e9c51461042f57600080fd5b8063a22cb465146103a9578063a36bd7e5146103bc578063b88d4fde146103cf57600080fd5b806391d14854116100c857806391d148541461036057806395d89b4114610399578063a217fddf146103a157600080fd5b8063572b6c05146102fa5780636352211e1461033a57806370a082311461034d57600080fd5b806323b872dd1161015b57806336568abe1161013557806336568abe146102ae57806342842e0e146102c157806342966c68146102d457806343b6df66146102e757600080fd5b806323b872dd14610257578063248a9ca31461026a5780632f2ff15d1461029b57600080fd5b8063081812fc1161018c578063081812fc14610205578063095ea7b31461023057806318618ce31461024357600080fd5b806301ffc9a7146101b357806306fdde03146101db578063077f224a146101f0575b600080fd5b6101c66101c1366004612305565b61046b565b60405190151581526020015b60405180910390f35b6101e361047c565b6040516101d2919061237a565b6102036101fe3660046123f2565b61050e565b005b610218610213366004612473565b61070f565b6040516001600160a01b0390911681526020016101d2565b61020361023e36600461248c565b610736565b61012e54610218906001600160a01b031681565b6102036102653660046124b6565b61087a565b61028d610278366004612473565b600090815260c9602052604090206001015490565b6040519081526020016101d2565b6102036102a93660046124f2565b6108f8565b6102036102bc3660046124f2565b61091d565b6102036102cf3660046124b6565b6109b9565b6102036102e2366004612473565b6109d4565b6102036102f536600461251e565b610a4d565b6101c661030836600461251e565b7f00000000000000000000000000000000000000000000000000000000000000006001600160a01b0390811691161490565b610218610348366004612473565b610aa9565b61028d61035b36600461251e565b610b0e565b6101c661036e3660046124f2565b600091825260c9602090815260408084206001600160a01b0393909316845291905290205460ff1690565b6101e3610ba8565b61028d600081565b6102036103b7366004612547565b610bb7565b6102036103ca36600461257e565b610bc9565b6102036103dd3660046125e1565b610c38565b6101e36103f0366004612473565b610cbd565b61028d7f9f2df0fed2c77648de5860a4cc508cd0818c85b8b8a1ab4ceeef8d981c8956a681565b61020361042a3660046124f2565b610d24565b6101c661043d3660046126bd565b6001600160a01b039182166000908152606a6020908152604080832093909416825291909152205460ff1690565b600061047682610d49565b92915050565b60606065805461048b906126e7565b80601f01602080910402602001604051908101604052809291908181526020018280546104b7906126e7565b80156105045780601f106104d957610100808354040283529160200191610504565b820191906000526020600020905b8154815290600101906020018083116104e757829003601f168201915b5050505050905090565b600054610100900460ff161580801561052e5750600054600160ff909116105b806105485750303b158015610548575060005460ff166001145b6105bf5760405162461bcd60e51b815260206004820152602e60248201527f496e697469616c697a61626c653a20636f6e747261637420697320616c72656160448201527f647920696e697469616c697a656400000000000000000000000000000000000060648201526084015b60405180910390fd5b6000805460ff1916600117905580156105e2576000805461ff0019166101001790555b61065586868080601f01602080910402602001604051908101604052809392919081815260200183838082843760009201919091525050604080516020601f8a018190048102820181019092528881529250889150879081908401838280828437600092019190915250610d8792505050565b61065d610dfc565b610665610dfc565b61012e80546001600160a01b03191673b66cf6eaf3a2f7c348e91bf1504d37a834abeb8a179055610697600083610e69565b6106c17f9f2df0fed2c77648de5860a4cc508cd0818c85b8b8a1ab4ceeef8d981c8956a683610e69565b8015610707576000805461ff0019169055604051600181527f7f26b83ff96e1f2b6a682f133852f6798a09c465da95921460cefb38474024989060200160405180910390a15b505050505050565b600061071a82610f0c565b506000908152606960205260409020546001600160a01b031690565b600061074182610aa9565b9050806001600160a01b0316836001600160a01b031614156107cb5760405162461bcd60e51b815260206004820152602160248201527f4552433732313a20617070726f76616c20746f2063757272656e74206f776e6560448201527f720000000000000000000000000000000000000000000000000000000000000060648201526084016105b6565b806001600160a01b03166107dd610f70565b6001600160a01b031614806107f957506107f98161043d610f70565b61086b5760405162461bcd60e51b815260206004820152603d60248201527f4552433732313a20617070726f76652063616c6c6572206973206e6f7420746f60448201527f6b656e206f776e6572206f7220617070726f76656420666f7220616c6c00000060648201526084016105b6565b6108758383610f7f565b505050565b61088b610885610f70565b82610fed565b6108ed5760405162461bcd60e51b815260206004820152602d60248201527f4552433732313a2063616c6c6572206973206e6f7420746f6b656e206f776e6560448201526c1c881bdc88185c1c1c9bdd9959609a1b60648201526084016105b6565b61087583838361106c565b600082815260c9602052604090206001015461091381611265565b6108758383610e69565b610925610f70565b6001600160a01b0316816001600160a01b0316146109ab5760405162461bcd60e51b815260206004820152602f60248201527f416363657373436f6e74726f6c3a2063616e206f6e6c792072656e6f756e636560448201527f20726f6c657320666f722073656c66000000000000000000000000000000000060648201526084016105b6565b6109b58282611276565b5050565b61087583838360405180602001604052806000815250610c38565b6109df610885610f70565b610a415760405162461bcd60e51b815260206004820152602d60248201527f4552433732313a2063616c6c6572206973206e6f7420746f6b656e206f776e6560448201526c1c881bdc88185c1c1c9bdd9959609a1b60648201526084016105b6565b610a4a81611317565b50565b7f9f2df0fed2c77648de5860a4cc508cd0818c85b8b8a1ab4ceeef8d981c8956a6610a7781611265565b610aa082610a83610f70565b61012e546001600160a01b03169190670de0b6b3a76400006113ac565b6109b582611434565b6000818152606760205260408120546001600160a01b0316806104765760405162461bcd60e51b815260206004820152601860248201527f4552433732313a20696e76616c696420746f6b656e204944000000000000000060448201526064016105b6565b60006001600160a01b038216610b8c5760405162461bcd60e51b815260206004820152602960248201527f4552433732313a2061646472657373207a65726f206973206e6f74206120766160448201527f6c6964206f776e6572000000000000000000000000000000000000000000000060648201526084016105b6565b506001600160a01b031660009081526068602052604090205490565b60606066805461048b906126e7565b6109b5610bc2610f70565b838361145b565b7f9f2df0fed2c77648de5860a4cc508cd0818c85b8b8a1ab4ceeef8d981c8956a6610bf381611265565b600083118015610c0b57506001600160a01b03821615155b15610c285781610c266001600160a01b0382168688876113ac565b505b610c3184611434565b5050505050565b610c49610c43610f70565b83610fed565b610cab5760405162461bcd60e51b815260206004820152602d60248201527f4552433732313a2063616c6c6572206973206e6f7420746f6b656e206f776e6560448201526c1c881bdc88185c1c1c9bdd9959609a1b60648201526084016105b6565b610cb78484848461152a565b50505050565b6060610cc882610f0c565b6000610cd26115a8565b90506000815111610cf25760405180602001604052806000815250610d1d565b80610cfc846115d9565b604051602001610d0d929190612722565b6040516020818303038152906040525b9392505050565b600082815260c96020526040902060010154610d3f81611265565b6108758383611276565b60006001600160e01b031982167f7965db0b000000000000000000000000000000000000000000000000000000001480610476575061047682611676565b600054610100900460ff16610df25760405162461bcd60e51b815260206004820152602b60248201527f496e697469616c697a61626c653a20636f6e7472616374206973206e6f74206960448201526a6e697469616c697a696e6760a81b60648201526084016105b6565b6109b58282611711565b600054610100900460ff16610e675760405162461bcd60e51b815260206004820152602b60248201527f496e697469616c697a61626c653a20636f6e7472616374206973206e6f74206960448201526a6e697469616c697a696e6760a81b60648201526084016105b6565b565b600082815260c9602090815260408083206001600160a01b038516845290915290205460ff166109b557600082815260c9602090815260408083206001600160a01b03851684529091529020805460ff19166001179055610ec8610f70565b6001600160a01b0316816001600160a01b0316837f2f8788117e7eff1d82e926ec794901d17c78024a50270940304540a733656f0d60405160405180910390a45050565b6000818152606760205260409020546001600160a01b0316610a4a5760405162461bcd60e51b815260206004820152601860248201527f4552433732313a20696e76616c696420746f6b656e204944000000000000000060448201526064016105b6565b6000610f7a6117a3565b905090565b600081815260696020526040902080546001600160a01b0319166001600160a01b0384169081179091558190610fb482610aa9565b6001600160a01b03167f8c5be1e5ebec7d5bd14f71427d1e84f3dd0314c0f7b2291e5b200ac8c7c3b92560405160405180910390a45050565b600080610ff983610aa9565b9050806001600160a01b0316846001600160a01b0316148061104057506001600160a01b038082166000908152606a602090815260408083209388168352929052205460ff165b806110645750836001600160a01b03166110598461070f565b6001600160a01b0316145b949350505050565b826001600160a01b031661107f82610aa9565b6001600160a01b0316146110e35760405162461bcd60e51b815260206004820152602560248201527f4552433732313a207472616e736665722066726f6d20696e636f72726563742060448201526437bbb732b960d91b60648201526084016105b6565b6001600160a01b03821661115e5760405162461bcd60e51b8152602060048201526024808201527f4552433732313a207472616e7366657220746f20746865207a65726f2061646460448201527f726573730000000000000000000000000000000000000000000000000000000060648201526084016105b6565b826001600160a01b031661117182610aa9565b6001600160a01b0316146111d55760405162461bcd60e51b815260206004820152602560248201527f4552433732313a207472616e736665722066726f6d20696e636f72726563742060448201526437bbb732b960d91b60648201526084016105b6565b600081815260696020908152604080832080546001600160a01b03199081169091556001600160a01b0387811680865260688552838620805460001901905590871680865283862080546001019055868652606790945282852080549092168417909155905184937fddf252ad1be2c89b69c2b068fc378daa952ba7f163c4a11628f55a4df523b3ef91a4505050565b610a4a81611271610f70565b6117e8565b600082815260c9602090815260408083206001600160a01b038516845290915290205460ff16156109b557600082815260c9602090815260408083206001600160a01b03851684529091529020805460ff191690556112d3610f70565b6001600160a01b0316816001600160a01b0316837ff6391f5c32d9c69d2a47ea670b442974b53935d1edc7fd64eb21e047a839171b60405160405180910390a45050565b600061132282610aa9565b905061132d82610aa9565b600083815260696020908152604080832080546001600160a01b03199081169091556001600160a01b0385168085526068845282852080546000190190558785526067909352818420805490911690555192935084927fddf252ad1be2c89b69c2b068fc378daa952ba7f163c4a11628f55a4df523b3ef908390a45050565b604080516001600160a01b0385811660248301528416604482015260648082018490528251808303909101815260849091019091526020810180517bffffffffffffffffffffffffffffffffffffffffffffffffffffffff167f23b872dd00000000000000000000000000000000000000000000000000000000179052610cb790859061185d565b600061144061012d5490565b905061145161012d80546001019055565b6109b58282611942565b816001600160a01b0316836001600160a01b031614156114bd5760405162461bcd60e51b815260206004820152601960248201527f4552433732313a20617070726f766520746f2063616c6c65720000000000000060448201526064016105b6565b6001600160a01b038381166000818152606a6020908152604080832094871680845294825291829020805460ff191686151590811790915591519182527f17307eab39ab6107e8899845ad3d59bd9653f200f220920489ca2b5937696c31910160405180910390a3505050565b61153584848461106c565b6115418484848461195c565b610cb75760405162461bcd60e51b815260206004820152603260248201527f4552433732313a207472616e7366657220746f206e6f6e20455243373231526560448201527131b2b4bb32b91034b6b83632b6b2b73a32b960711b60648201526084016105b6565b60606115b5306014611ad4565b6040516020016115c59190612751565b604051602081830303815290604052905090565b606060006115e683611c70565b600101905060008167ffffffffffffffff811115611606576116066125cb565b6040519080825280601f01601f191660200182016040528015611630576020820181803683370190505b5090508181016020015b600019016f181899199a1a9b1b9c1cb0b131b232b360811b600a86061a8153600a85049450846116695761166e565b61163a565b509392505050565b60006001600160e01b031982167f80ac58cd0000000000000000000000000000000000000000000000000000000014806116d957506001600160e01b031982167f5b5e139f00000000000000000000000000000000000000000000000000000000145b8061047657507f01ffc9a7000000000000000000000000000000000000000000000000000000006001600160e01b0319831614610476565b600054610100900460ff1661177c5760405162461bcd60e51b815260206004820152602b60248201527f496e697469616c697a61626c653a20636f6e7472616374206973206e6f74206960448201526a6e697469616c697a696e6760a81b60648201526084016105b6565b815161178f906065906020850190612256565b508051610875906066906020840190612256565b60007f00000000000000000000000000000000000000000000000000000000000000006001600160a01b03163314156117e3575060131936013560601c90565b503390565b600082815260c9602090815260408083206001600160a01b038516845290915290205460ff166109b55761181b81611d52565b611826836020611d64565b6040516020016118379291906127bd565b60408051601f198184030181529082905262461bcd60e51b82526105b69160040161237a565b60006118b2826040518060400160405280602081526020017f5361666545524332303a206c6f772d6c6576656c2063616c6c206661696c6564815250856001600160a01b0316611eb19092919063ffffffff16565b80519091501561087557808060200190518101906118d0919061283e565b6108755760405162461bcd60e51b815260206004820152602a60248201527f5361666545524332303a204552433230206f7065726174696f6e20646964206e60448201527f6f7420737563636565640000000000000000000000000000000000000000000060648201526084016105b6565b6109b5828260405180602001604052806000815250611ec0565b60006001600160a01b0384163b15611ac957836001600160a01b031663150b7a02611985610f70565b8786866040518563ffffffff1660e01b81526004016119a7949392919061285b565b602060405180830381600087803b1580156119c157600080fd5b505af19250505080156119f1575060408051601f3d908101601f191682019092526119ee91810190612897565b60015b611a96573d808015611a1f576040519150601f19603f3d011682016040523d82523d6000602084013e611a24565b606091505b508051611a8e5760405162461bcd60e51b815260206004820152603260248201527f4552433732313a207472616e7366657220746f206e6f6e20455243373231526560448201527131b2b4bb32b91034b6b83632b6b2b73a32b960711b60648201526084016105b6565b805181602001fd5b6001600160e01b0319167f150b7a0200000000000000000000000000000000000000000000000000000000149050611064565b506001949350505050565b60606000611ae38360026128ca565b611aee9060026128e9565b67ffffffffffffffff811115611b0657611b066125cb565b6040519080825280601f01601f191660200182016040528015611b30576020820181803683370190505b509050600360fc1b81600081518110611b4b57611b4b612901565b60200101906001600160f81b031916908160001a905350600f60fb1b81600181518110611b7a57611b7a612901565b60200101906001600160f81b031916908160001a9053506000611b9e8460026128ca565b611ba99060016128e9565b90505b6001811115611c21576f181899199a1a9b1b9c1cb0b131b232b360811b85600f1660108110611bdd57611bdd612901565b1a60f81b828281518110611bf357611bf3612901565b60200101906001600160f81b031916908160001a90535060049490941c93611c1a81612917565b9050611bac565b508315610d1d5760405162461bcd60e51b815260206004820181905260248201527f537472696e67733a20686578206c656e67746820696e73756666696369656e7460448201526064016105b6565b6000807a184f03e93ff9f4daa797ed6e38ed64bf6a1f0100000000000000008310611cb9577a184f03e93ff9f4daa797ed6e38ed64bf6a1f010000000000000000830492506040015b6d04ee2d6d415b85acef81000000008310611ce5576d04ee2d6d415b85acef8100000000830492506020015b662386f26fc100008310611d0357662386f26fc10000830492506010015b6305f5e1008310611d1b576305f5e100830492506008015b6127108310611d2f57612710830492506004015b60648310611d41576064830492506002015b600a83106104765760010192915050565b60606104766001600160a01b03831660145b60606000611d738360026128ca565b611d7e9060026128e9565b67ffffffffffffffff811115611d9657611d966125cb565b6040519080825280601f01601f191660200182016040528015611dc0576020820181803683370190505b509050600360fc1b81600081518110611ddb57611ddb612901565b60200101906001600160f81b031916908160001a905350600f60fb1b81600181518110611e0a57611e0a612901565b60200101906001600160f81b031916908160001a9053506000611e2e8460026128ca565b611e399060016128e9565b90505b6001811115611c21576f181899199a1a9b1b9c1cb0b131b232b360811b85600f1660108110611e6d57611e6d612901565b1a60f81b828281518110611e8357611e83612901565b60200101906001600160f81b031916908160001a90535060049490941c93611eaa81612917565b9050611e3c565b60606110648484600085611f3e565b611eca8383612030565b611ed7600084848461195c565b6108755760405162461bcd60e51b815260206004820152603260248201527f4552433732313a207472616e7366657220746f206e6f6e20455243373231526560448201527131b2b4bb32b91034b6b83632b6b2b73a32b960711b60648201526084016105b6565b606082471015611fb65760405162461bcd60e51b815260206004820152602660248201527f416464726573733a20696e73756666696369656e742062616c616e636520666f60448201527f722063616c6c000000000000000000000000000000000000000000000000000060648201526084016105b6565b600080866001600160a01b03168587604051611fd2919061292e565b60006040518083038185875af1925050503d806000811461200f576040519150601f19603f3d011682016040523d82523d6000602084013e612014565b606091505b5091509150612025878383876121bb565b979650505050505050565b6001600160a01b0382166120865760405162461bcd60e51b815260206004820181905260248201527f4552433732313a206d696e7420746f20746865207a65726f206164647265737360448201526064016105b6565b6000818152606760205260409020546001600160a01b0316156120eb5760405162461bcd60e51b815260206004820152601c60248201527f4552433732313a20746f6b656e20616c7265616479206d696e7465640000000060448201526064016105b6565b6000818152606760205260409020546001600160a01b0316156121505760405162461bcd60e51b815260206004820152601c60248201527f4552433732313a20746f6b656e20616c7265616479206d696e7465640000000060448201526064016105b6565b6001600160a01b038216600081815260686020908152604080832080546001019055848352606790915280822080546001600160a01b0319168417905551839291907fddf252ad1be2c89b69c2b068fc378daa952ba7f163c4a11628f55a4df523b3ef908290a45050565b60608315612227578251612220576001600160a01b0385163b6122205760405162461bcd60e51b815260206004820152601d60248201527f416464726573733a2063616c6c20746f206e6f6e2d636f6e747261637400000060448201526064016105b6565b5081611064565b611064838381511561223c5781518083602001fd5b8060405162461bcd60e51b81526004016105b6919061237a565b828054612262906126e7565b90600052602060002090601f01602090048101928261228457600085556122ca565b82601f1061229d57805160ff19168380011785556122ca565b828001600101855582156122ca579182015b828111156122ca5782518255916020019190600101906122af565b506122d69291506122da565b5090565b5b808211156122d657600081556001016122db565b6001600160e01b031981168114610a4a57600080fd5b60006020828403121561231757600080fd5b8135610d1d816122ef565b60005b8381101561233d578181015183820152602001612325565b83811115610cb75750506000910152565b60008151808452612366816020860160208601612322565b601f01601f19169290920160200192915050565b602081526000610d1d602083018461234e565b60008083601f84011261239f57600080fd5b50813567ffffffffffffffff8111156123b757600080fd5b6020830191508360208285010111156123cf57600080fd5b9250929050565b80356001600160a01b03811681146123ed57600080fd5b919050565b60008060008060006060868803121561240a57600080fd5b853567ffffffffffffffff8082111561242257600080fd5b61242e89838a0161238d565b9097509550602088013591508082111561244757600080fd5b506124548882890161238d565b90945092506124679050604087016123d6565b90509295509295909350565b60006020828403121561248557600080fd5b5035919050565b6000806040838503121561249f57600080fd5b6124a8836123d6565b946020939093013593505050565b6000806000606084860312156124cb57600080fd5b6124d4846123d6565b92506124e2602085016123d6565b9150604084013590509250925092565b6000806040838503121561250557600080fd5b82359150612515602084016123d6565b90509250929050565b60006020828403121561253057600080fd5b610d1d826123d6565b8015158114610a4a57600080fd5b6000806040838503121561255a57600080fd5b612563836123d6565b9150602083013561257381612539565b809150509250929050565b6000806000806080858703121561259457600080fd5b61259d856123d6565b93506125ab602086016123d6565b9250604085013591506125c0606086016123d6565b905092959194509250565b634e487b7160e01b600052604160045260246000fd5b600080600080608085870312156125f757600080fd5b612600856123d6565b935061260e602086016123d6565b925060408501359150606085013567ffffffffffffffff8082111561263257600080fd5b818701915087601f83011261264657600080fd5b813581811115612658576126586125cb565b604051601f8201601f19908116603f01168101908382118183101715612680576126806125cb565b816040528281528a602084870101111561269957600080fd5b82602086016020830137600060208483010152809550505050505092959194509250565b600080604083850312156126d057600080fd5b6126d9836123d6565b9150612515602084016123d6565b600181811c908216806126fb57607f821691505b6020821081141561271c57634e487b7160e01b600052602260045260246000fd5b50919050565b60008351612734818460208801612322565b835190830190612748818360208801612322565b01949350505050565b7f68747470733a2f2f6170692e616972746973742e78797a2f6d6574612f00000081526000825161278981601d850160208701612322565b7f2f00000000000000000000000000000000000000000000000000000000000000601d939091019283015250601e01919050565b7f416363657373436f6e74726f6c3a206163636f756e74200000000000000000008152600083516127f5816017850160208801612322565b7f206973206d697373696e6720726f6c65200000000000000000000000000000006017918401918201528351612832816028840160208801612322565b01602801949350505050565b60006020828403121561285057600080fd5b8151610d1d81612539565b60006001600160a01b0380871683528086166020840152508360408301526080606083015261288d608083018461234e565b9695505050505050565b6000602082840312156128a957600080fd5b8151610d1d816122ef565b634e487b7160e01b600052601160045260246000fd5b60008160001904831182151516156128e4576128e46128b4565b500290565b600082198211156128fc576128fc6128b4565b500190565b634e487b7160e01b600052603260045260246000fd5b600081612926576129266128b4565b506000190190565b60008251612940818460208701612322565b919091019291505056fea2646970667358221220ae0c9dc6b0fe2ffe0378921a18a4877c973ac52e700c054889bc75185f060c4964736f6c63430008090033",
  "linkReferences": {},
  "deployedLinkReferences": {}
}