{
  "_format": "hh-sol-artifact-1",
  "contractName": "AIrtNFTFactory",
  "sourceName": "contracts/AIrtNFTFactory.sol",
  "abi": [
    {
      "inputs": [],
      "stateMutability": "nonpayable",
      "type": "constructor"
    },
    {
      "anonymous": false,
      "inputs": [
        {
          "indexed": true,
          "internalType": "address",
          "name": "owner",
          "type": "address"
        },
        {
          "indexed": false,
          "internalType": "address",
          "name": "nftContract",
          "type": "address"
        }
      ],
      "name": "AIrtNFTCreated",
      "type": "event"
    },
    {
      "anonymous": false,
      "inputs": [
        {
          "indexed": false,
          "internalType": "uint8",
          "name": "version",
          "type": "uint8"
        }
      ],
      "name": "Initialized",
      "type": "event"
    },
    {
      "anonymous": false,
      "inputs": [
        {
          "indexed": true,
          "internalType": "address",
          "name": "creator",
          "type": "address"
        },
        {
          "indexed": false,
          "internalType": "address",
          "name": "transporterContract",
          "type": "address"
        }
      ],
      "name": "TransporterCreated",
      "type": "event"
    },
    {
      "inputs": [
        {
          "internalType": "string",
          "name": "_name",
          "type": "string"
        },
        {
          "internalType": "string",
          "name": "_symbol",
          "type": "string"
        },
        {
          "internalType": "address",
          "name": "owner",
          "type": "address"
        }
      ],
      "name": "createAIrtNFT",
      "outputs": [
        {
          "internalType": "address",
          "name": "",
          "type": "address"
        }
      ],
      "stateMutability": "nonpayable",
      "type": "function"
    },
    {
      "inputs": [
        {
          "internalType": "address",
          "name": "gateway_",
          "type": "address"
        },
        {
          "internalType": "address",
          "name": "gasReceiver_",
          "type": "address"
        },
        {
          "internalType": "string",
          "name": "_salt",
          "type": "string"
        }
      ],
      "name": "createTransporter",
      "outputs": [
        {
          "internalType": "address",
          "name": "",
          "type": "address"
        }
      ],
      "stateMutability": "nonpayable",
      "type": "function"
    },
    {
      "inputs": [
        {
          "internalType": "address",
          "name": "_nftImplementation",
          "type": "address"
        },
        {
          "internalType": "address",
          "name": "_transporterImplementation",
          "type": "address"
        }
      ],
      "name": "initialize",
      "outputs": [],
      "stateMutability": "nonpayable",
      "type": "function"
    },
    {
      "inputs": [
        {
          "internalType": "address",
          "name": "forwarder",
          "type": "address"
        }
      ],
      "name": "isTrustedForwarder",
      "outputs": [
        {
          "internalType": "bool",
          "name": "",
          "type": "bool"
        }
      ],
      "stateMutability": "view",
      "type": "function"
    },
    {
      "inputs": [],
      "name": "nftImplementation",
      "outputs": [
        {
          "internalType": "address",
          "name": "",
          "type": "address"
        }
      ],
      "stateMutability": "view",
      "type": "function"
    },
    {
      "inputs": [],
      "name": "transporterImplementation",
      "outputs": [
        {
          "internalType": "address",
          "name": "",
          "type": "address"
        }
      ],
      "stateMutability": "view",
      "type": "function"
    }
  ],
  "bytecode": "0x60a060405234801561001057600080fd5b5073bf175fcc7086b4f9bd59d5eae8ea67b8f940de0d6080526080516108be61004a6000396000818160cc01526105d501526108be6000f3fe608060405234801561001057600080fd5b50600436106100725760003560e01c8063958fc64f11610050578063958fc64f1461010c5780639e5887cf1461011f578063f61ac58b1461013257600080fd5b8063473ef29014610077578063485cc955146100a7578063572b6c05146100bc575b600080fd5b61008a61008536600461067b565b61014b565b6040516001600160a01b0390911681526020015b60405180910390f35b6100ba6100b53660046106dc565b610285565b005b6100fc6100ca36600461070f565b7f00000000000000000000000000000000000000000000000000000000000000006001600160a01b0390811691161490565b604051901515815260200161009e565b60015461008a906001600160a01b031681565b61008a61012d366004610731565b610413565b60005461008a906201000090046001600160a01b031681565b60008083836040516020016101619291906107db565b60408051601f198184030181529190528051602090910120600154909150600090610195906001600160a01b03168361052e565b9050806001600160a01b031663c0c53b8b88886101b06105d1565b60405160e085901b7fffffffff000000000000000000000000000000000000000000000000000000001681526001600160a01b03938416600482015291831660248301529091166044820152606401600060405180830381600087803b15801561021957600080fd5b505af115801561022d573d6000803e3d6000fd5b505050506102396105d1565b6040516001600160a01b03838116825291909116907f1f71ab74c91523892c4593d8973c9adf96be9bc6d816577471a1e34ddba5a3be9060200160405180910390a29695505050505050565b600054610100900460ff16158080156102a55750600054600160ff909116105b806102bf5750303b1580156102bf575060005460ff166001145b6103365760405162461bcd60e51b815260206004820152602e60248201527f496e697469616c697a61626c653a20636f6e747261637420697320616c72656160448201527f647920696e697469616c697a656400000000000000000000000000000000000060648201526084015b60405180910390fd5b6000805460ff191660011790558015610359576000805461ff0019166101001790555b600080547fffffffffffffffffffff0000000000000000000000000000000000000000ffff16620100006001600160a01b038681169190910291909117909155600180547fffffffffffffffffffffffff000000000000000000000000000000000000000016918416919091179055801561040e576000805461ff0019169055604051600181527f7f26b83ff96e1f2b6a682f133852f6798a09c465da95921460cefb38474024989060200160405180910390a15b505050565b600080868686868660405160200161042f9594939291906107f7565b6040516020818303038152906040528051906020012090506000610468600060029054906101000a90046001600160a01b03168361052e565b9050806001600160a01b0316638f15b414898989896104856105d1565b8a6040518763ffffffff1660e01b81526004016104a79695949392919061083a565b600060405180830381600087803b1580156104c157600080fd5b505af11580156104d5573d6000803e3d6000fd5b505050506104e16105d1565b6040516001600160a01b03838116825291909116907fe64a3b9dc85b2a9d1660db223c1d39a16db18f3b767ab921dbb83a99b64fecc69060200160405180910390a2979650505050505050565b6000763d602d80600a3d3981f3363d3d373d3d3d363d730000008360601b60e81c176000526e5af43d82803e903d91602b57fd5bf38360781b1760205281603760096000f590506001600160a01b0381166105cb5760405162461bcd60e51b815260206004820152601760248201527f455243313136373a2063726561746532206661696c6564000000000000000000604482015260640161032d565b92915050565b60007f00000000000000000000000000000000000000000000000000000000000000006001600160a01b0316331415610611575060131936013560601c90565b503390565b80356001600160a01b038116811461062d57600080fd5b919050565b60008083601f84011261064457600080fd5b50813567ffffffffffffffff81111561065c57600080fd5b60208301915083602082850101111561067457600080fd5b9250929050565b6000806000806060858703121561069157600080fd5b61069a85610616565b93506106a860208601610616565b9250604085013567ffffffffffffffff8111156106c457600080fd5b6106d087828801610632565b95989497509550505050565b600080604083850312156106ef57600080fd5b6106f883610616565b915061070660208401610616565b90509250929050565b60006020828403121561072157600080fd5b61072a82610616565b9392505050565b60008060008060006060868803121561074957600080fd5b853567ffffffffffffffff8082111561076157600080fd5b61076d89838a01610632565b9097509550602088013591508082111561078657600080fd5b5061079388828901610632565b90945092506107a6905060408701610616565b90509295509295909350565b81835281816020850137506000828201602090810191909152601f909101601f19169091010190565b6020815260006107ef6020830184866107b2565b949350505050565b60608152600061080b6060830187896107b2565b828103602084015261081e8186886107b2565b9150506001600160a01b03831660408301529695505050505050565b60808152600061084e60808301888a6107b2565b82810360208401526108618187896107b2565b9150506001600160a01b03808516604084015280841660608401525097965050505050505056fea2646970667358221220ad00643aec83840a048a5ef556816b942a9b882fb6f966b8e226e4bbe825612464736f6c63430008090033",
  "linkReferences": {},
  "deployedLinkReferences": {}
}