{
  "_format": "hh-sol-artifact-1",
  "contractName": "AIrtNFTFactory",
  "sourceName": "contracts/AIrtNFTFactory.sol",
  "abi": [
    {
      "inputs": [
        {
          "internalType": "address",
          "name": "_implementation",
          "type": "address"
        }
      ],
      "stateMutability": "nonpayable",
      "type": "constructor"
    },
    {
      "anonymous": false,
      "inputs": [
        {
          "indexed": true,
          "internalType": "address",
          "name": "owner",
          "type": "address"
        },
        {
          "indexed": false,
          "internalType": "address",
          "name": "nftContract",
          "type": "address"
        }
      ],
      "name": "AIrtNFTCreated",
      "type": "event"
    },
    {
      "inputs": [
        {
          "internalType": "string",
          "name": "_name",
          "type": "string"
        },
        {
          "internalType": "string",
          "name": "_symbol",
          "type": "string"
        }
      ],
      "name": "createAIrtNFT",
      "outputs": [
        {
          "internalType": "address",
          "name": "",
          "type": "address"
        }
      ],
      "stateMutability": "nonpayable",
      "type": "function"
    },
    {
      "inputs": [
        {
          "internalType": "address",
          "name": "forwarder",
          "type": "address"
        }
      ],
      "name": "isTrustedForwarder",
      "outputs": [
        {
          "internalType": "bool",
          "name": "",
          "type": "bool"
        }
      ],
      "stateMutability": "view",
      "type": "function"
    }
  ],
  "bytecode": "0x60c060405234801561001057600080fd5b506040516104e63803806104e683398101604081905261002f91610058565b73bf175fcc7086b4f9bd59d5eae8ea67b8f940de0d6080526001600160a01b031660a052610088565b60006020828403121561006a57600080fd5b81516001600160a01b038116811461008157600080fd5b9392505050565b60805160a0516104346100b2600039600060c3015260008181604b015261026c01526104346000f3fe608060405234801561001057600080fd5b50600436106100365760003560e01c8063572b6c051461003b57806363affbda14610090575b600080fd5b61007b6100493660046102ad565b7f00000000000000000000000000000000000000000000000000000000000000006001600160a01b0390811691161490565b60405190151581526020015b60405180910390f35b6100a361009e366004610326565b6100bb565b6040516001600160a01b039091168152602001610087565b6000806100e77f00000000000000000000000000000000000000000000000000000000000000006101a9565b9050806001600160a01b031663077f224a87878787610104610268565b6040518663ffffffff1660e01b81526004016101249594939291906103bb565b600060405180830381600087803b15801561013e57600080fd5b505af1158015610152573d6000803e3d6000fd5b5050505061015e610268565b6040516001600160a01b03838116825291909116907fe64a3b9dc85b2a9d1660db223c1d39a16db18f3b767ab921dbb83a99b64fecc69060200160405180910390a295945050505050565b6000763d602d80600a3d3981f3363d3d373d3d3d363d730000008260601b60e81c176000526e5af43d82803e903d91602b57fd5bf38260781b17602052603760096000f090506001600160a01b038116610263576040517f08c379a000000000000000000000000000000000000000000000000000000000815260206004820152601660248201527f455243313136373a20637265617465206661696c656400000000000000000000604482015260640160405180910390fd5b919050565b60007f00000000000000000000000000000000000000000000000000000000000000006001600160a01b03163314156102a8575060131936013560601c90565b503390565b6000602082840312156102bf57600080fd5b81356001600160a01b03811681146102d657600080fd5b9392505050565b60008083601f8401126102ef57600080fd5b50813567ffffffffffffffff81111561030757600080fd5b60208301915083602082850101111561031f57600080fd5b9250929050565b6000806000806040858703121561033c57600080fd5b843567ffffffffffffffff8082111561035457600080fd5b610360888389016102dd565b9096509450602087013591508082111561037957600080fd5b50610386878288016102dd565b95989497509550505050565b81835281816020850137506000828201602090810191909152601f909101601f19169091010190565b6060815260006103cf606083018789610392565b82810360208401526103e2818688610392565b9150506001600160a01b0383166040830152969550505050505056fea2646970667358221220e2d5caba6af0a79ad304e2139e1067270e0490981ed2358fa5e2319cc9f7c11164736f6c63430008090033",
  "linkReferences": {},
  "deployedLinkReferences": {}
}