{
  "_format": "hh-sol-artifact-1",
  "contractName": "Transporter",
  "sourceName": "contracts/Transporter.sol",
  "abi": [
    {
      "inputs": [],
      "stateMutability": "nonpayable",
      "type": "constructor"
    },
    {
      "inputs": [],
      "name": "InvalidAddress",
      "type": "error"
    },
    {
      "inputs": [],
      "name": "InvalidAddressString",
      "type": "error"
    },
    {
      "inputs": [],
      "name": "NotApprovedByGateway",
      "type": "error"
    },
    {
      "anonymous": false,
      "inputs": [
        {
          "indexed": false,
          "internalType": "uint8",
          "name": "version",
          "type": "uint8"
        }
      ],
      "name": "Initialized",
      "type": "event"
    },
    {
      "anonymous": false,
      "inputs": [
        {
          "indexed": true,
          "internalType": "bytes32",
          "name": "role",
          "type": "bytes32"
        },
        {
          "indexed": true,
          "internalType": "bytes32",
          "name": "previousAdminRole",
          "type": "bytes32"
        },
        {
          "indexed": true,
          "internalType": "bytes32",
          "name": "newAdminRole",
          "type": "bytes32"
        }
      ],
      "name": "RoleAdminChanged",
      "type": "event"
    },
    {
      "anonymous": false,
      "inputs": [
        {
          "indexed": true,
          "internalType": "bytes32",
          "name": "role",
          "type": "bytes32"
        },
        {
          "indexed": true,
          "internalType": "address",
          "name": "account",
          "type": "address"
        },
        {
          "indexed": true,
          "internalType": "address",
          "name": "sender",
          "type": "address"
        }
      ],
      "name": "RoleGranted",
      "type": "event"
    },
    {
      "anonymous": false,
      "inputs": [
        {
          "indexed": true,
          "internalType": "bytes32",
          "name": "role",
          "type": "bytes32"
        },
        {
          "indexed": true,
          "internalType": "address",
          "name": "account",
          "type": "address"
        },
        {
          "indexed": true,
          "internalType": "address",
          "name": "sender",
          "type": "address"
        }
      ],
      "name": "RoleRevoked",
      "type": "event"
    },
    {
      "inputs": [],
      "name": "DEFAULT_ADMIN_ROLE",
      "outputs": [
        {
          "internalType": "bytes32",
          "name": "",
          "type": "bytes32"
        }
      ],
      "stateMutability": "view",
      "type": "function"
    },
    {
      "inputs": [],
      "name": "TRANSPORTER_ROLE",
      "outputs": [
        {
          "internalType": "bytes32",
          "name": "",
          "type": "bytes32"
        }
      ],
      "stateMutability": "view",
      "type": "function"
    },
    {
      "inputs": [
        {
          "internalType": "bytes32",
          "name": "commandId",
          "type": "bytes32"
        },
        {
          "internalType": "string",
          "name": "sourceChain",
          "type": "string"
        },
        {
          "internalType": "string",
          "name": "sourceAddress",
          "type": "string"
        },
        {
          "internalType": "bytes",
          "name": "payload",
          "type": "bytes"
        }
      ],
      "name": "execute",
      "outputs": [],
      "stateMutability": "nonpayable",
      "type": "function"
    },
    {
      "inputs": [
        {
          "internalType": "bytes32",
          "name": "commandId",
          "type": "bytes32"
        },
        {
          "internalType": "string",
          "name": "sourceChain",
          "type": "string"
        },
        {
          "internalType": "string",
          "name": "sourceAddress",
          "type": "string"
        },
        {
          "internalType": "bytes",
          "name": "payload",
          "type": "bytes"
        },
        {
          "internalType": "string",
          "name": "tokenSymbol",
          "type": "string"
        },
        {
          "internalType": "uint256",
          "name": "amount",
          "type": "uint256"
        }
      ],
      "name": "executeWithToken",
      "outputs": [],
      "stateMutability": "nonpayable",
      "type": "function"
    },
    {
      "inputs": [],
      "name": "gasReceiver",
      "outputs": [
        {
          "internalType": "contract IAxelarGasService",
          "name": "",
          "type": "address"
        }
      ],
      "stateMutability": "view",
      "type": "function"
    },
    {
      "inputs": [],
      "name": "gateway",
      "outputs": [
        {
          "internalType": "contract IAxelarGateway",
          "name": "",
          "type": "address"
        }
      ],
      "stateMutability": "view",
      "type": "function"
    },
    {
      "inputs": [
        {
          "internalType": "bytes32",
          "name": "role",
          "type": "bytes32"
        }
      ],
      "name": "getRoleAdmin",
      "outputs": [
        {
          "internalType": "bytes32",
          "name": "",
          "type": "bytes32"
        }
      ],
      "stateMutability": "view",
      "type": "function"
    },
    {
      "inputs": [
        {
          "internalType": "bytes32",
          "name": "role",
          "type": "bytes32"
        },
        {
          "internalType": "address",
          "name": "account",
          "type": "address"
        }
      ],
      "name": "grantRole",
      "outputs": [],
      "stateMutability": "nonpayable",
      "type": "function"
    },
    {
      "inputs": [
        {
          "internalType": "bytes32",
          "name": "role",
          "type": "bytes32"
        },
        {
          "internalType": "address",
          "name": "account",
          "type": "address"
        }
      ],
      "name": "hasRole",
      "outputs": [
        {
          "internalType": "bool",
          "name": "",
          "type": "bool"
        }
      ],
      "stateMutability": "view",
      "type": "function"
    },
    {
      "inputs": [
        {
          "internalType": "address",
          "name": "gateway_",
          "type": "address"
        },
        {
          "internalType": "address",
          "name": "gasReceiver_",
          "type": "address"
        },
        {
          "internalType": "address",
          "name": "_admin",
          "type": "address"
        }
      ],
      "name": "initialize",
      "outputs": [],
      "stateMutability": "nonpayable",
      "type": "function"
    },
    {
      "inputs": [
        {
          "internalType": "address",
          "name": "forwarder",
          "type": "address"
        }
      ],
      "name": "isTrustedForwarder",
      "outputs": [
        {
          "internalType": "bool",
          "name": "",
          "type": "bool"
        }
      ],
      "stateMutability": "view",
      "type": "function"
    },
    {
      "inputs": [
        {
          "internalType": "bytes32",
          "name": "role",
          "type": "bytes32"
        },
        {
          "internalType": "address",
          "name": "account",
          "type": "address"
        }
      ],
      "name": "renounceRole",
      "outputs": [],
      "stateMutability": "nonpayable",
      "type": "function"
    },
    {
      "inputs": [
        {
          "internalType": "bytes32",
          "name": "role",
          "type": "bytes32"
        },
        {
          "internalType": "address",
          "name": "account",
          "type": "address"
        }
      ],
      "name": "revokeRole",
      "outputs": [],
      "stateMutability": "nonpayable",
      "type": "function"
    },
    {
      "inputs": [
        {
          "internalType": "address",
          "name": "nftAddress",
          "type": "address"
        },
        {
          "internalType": "address",
          "name": "to",
          "type": "address"
        },
        {
          "internalType": "uint256",
          "name": "tokenId",
          "type": "uint256"
        },
        {
          "internalType": "string",
          "name": "chainName",
          "type": "string"
        },
        {
          "internalType": "uint256",
          "name": "fee",
          "type": "uint256"
        }
      ],
      "name": "send",
      "outputs": [],
      "stateMutability": "payable",
      "type": "function"
    },
    {
      "inputs": [
        {
          "internalType": "bytes4",
          "name": "interfaceId",
          "type": "bytes4"
        }
      ],
      "name": "supportsInterface",
      "outputs": [
        {
          "internalType": "bool",
          "name": "",
          "type": "bool"
        }
      ],
      "stateMutability": "view",
      "type": "function"
    },
    {
      "inputs": [],
      "name": "withdraw",
      "outputs": [],
      "stateMutability": "nonpayable",
      "type": "function"
    },
    {
      "stateMutability": "payable",
      "type": "receive"
    }
  ],
  "bytecode": "0x60a060405234801561001057600080fd5b5073bf175fcc7086b4f9bd59d5eae8ea67b8f940de0d608052610031610036565b6100f6565b600054610100900460ff16156100a25760405162461bcd60e51b815260206004820152602760248201527f496e697469616c697a61626c653a20636f6e747261637420697320696e697469604482015266616c697a696e6760c81b606482015260840160405180910390fd5b60005460ff90811610156100f4576000805460ff191660ff9081179091556040519081527f7f26b83ff96e1f2b6a682f133852f6798a09c465da95921460cefb38474024989060200160405180910390a15b565b608051611b6e610118600039600081816102a901526110500152611b6e6000f3fe6080604052600436106100f75760003560e01c8063491606581161008a57806391d148541161005957806391d14854146102f9578063a217fddf1461033f578063c0c53b8b14610354578063d547741f1461037457600080fd5b806349160658146102385780634eabbe7714610258578063572b6c051461028c57806380d14b4a146102d957600080fd5b806328bbcb43116100c657806328bbcb43146101d05780632f2ff15d146101e357806336568abe146102035780633ccfd60b1461022357600080fd5b806301ffc9a714610103578063116191b6146101385780631a98b2e014610170578063248a9ca31461019257600080fd5b366100fe57005b600080fd5b34801561010f57600080fd5b5061012361011e3660046113d2565b610394565b60405190151581526020015b60405180910390f35b34801561014457600080fd5b5060c954610158906001600160a01b031681565b6040516001600160a01b03909116815260200161012f565b34801561017c57600080fd5b5061019061018b36600461145d565b61042d565b005b34801561019e57600080fd5b506101c26101ad366004611537565b60009081526065602052604090206001015490565b60405190815260200161012f565b6101906101de36600461157b565b61051b565b3480156101ef57600080fd5b506101906101fe366004611663565b6106cb565b34801561020f57600080fd5b5061019061021e366004611663565b6106f5565b34801561022f57600080fd5b50610190610796565b34801561024457600080fd5b50610190610253366004611693565b610800565b34801561026457600080fd5b506101c27fddaa901e2fe3bda354fe0ede2785152d5c109282a613fe024a056a3e66c41bb381565b34801561029857600080fd5b506101236102a7366004611737565b7f00000000000000000000000000000000000000000000000000000000000000006001600160a01b0390811691161490565b3480156102e557600080fd5b5060ca54610158906001600160a01b031681565b34801561030557600080fd5b50610123610314366004611663565b60009182526065602090815260408084206001600160a01b0393909316845291905290205460ff1690565b34801561034b57600080fd5b506101c2600081565b34801561036057600080fd5b5061019061036f366004611754565b61095c565b34801561038057600080fd5b5061019061038f366004611663565b610b13565b60007fffffffff0000000000000000000000000000000000000000000000000000000082167f7965db0b00000000000000000000000000000000000000000000000000000000148061042757507f01ffc9a7000000000000000000000000000000000000000000000000000000007fffffffff000000000000000000000000000000000000000000000000000000008316145b92915050565b6000858560405161043f92919061179f565b60405190819003812060c9547f1876eed90000000000000000000000000000000000000000000000000000000083529092506001600160a01b031690631876eed99061049f908e908e908e908e908e9089908d908d908d906004016117d8565b602060405180830381600087803b1580156104b957600080fd5b505af11580156104cd573d6000803e3d6000fd5b505050506040513d601f19601f820116820180604052508101906104f19190611837565b61050e57604051631403112d60e21b815260040160405180910390fd5b5050505050505050505050565b7fddaa901e2fe3bda354fe0ede2785152d5c109282a613fe024a056a3e66c41bb361054581610b38565b6040517f765f1e86000000000000000000000000000000000000000000000000000000008152600481018590526001600160a01b0387169063765f1e8690602401600060405180830381600087803b1580156105a057600080fd5b505af11580156105b4573d6000803e3d6000fd5b5050604080516001600160a01b038a811660208301528981168284015260608083018a905283518084039091018152608090920190925260ca54909350169050630c93e3bb84308761060582610b4c565b8661060e610da4565b6040518763ffffffff1660e01b815260040161062e9594939291906118b1565b6000604051808303818588803b15801561064757600080fd5b505af115801561065b573d6000803e3d6000fd5b505060c9546001600160a01b03169250631c92115f915086905061067e30610b4c565b846040518463ffffffff1660e01b815260040161069d93929190611910565b600060405180830381600087803b1580156106b757600080fd5b505af115801561050e573d6000803e3d6000fd5b6000828152606560205260409020600101546106e681610b38565b6106f08383610db3565b505050565b6106fd610da4565b6001600160a01b0316816001600160a01b0316146107885760405162461bcd60e51b815260206004820152602f60248201527f416363657373436f6e74726f6c3a2063616e206f6e6c792072656e6f756e636560448201527f20726f6c657320666f722073656c66000000000000000000000000000000000060648201526084015b60405180910390fd5b6107928282610e56565b5050565b7fddaa901e2fe3bda354fe0ede2785152d5c109282a613fe024a056a3e66c41bb36107c081610b38565b6107c8610da4565b6001600160a01b03166108fc479081150290604051600060405180830381858888f19350505050158015610792573d6000803e3d6000fd5b6000828260405161081292919061179f565b60405190819003812060c9547f5f6970c30000000000000000000000000000000000000000000000000000000083529092506001600160a01b031690635f6970c39061086c908b908b908b908b908b908990600401611953565b602060405180830381600087803b15801561088657600080fd5b505af115801561089a573d6000803e3d6000fd5b505050506040513d601f19601f820116820180604052508101906108be9190611837565b6108db57604051631403112d60e21b815260040160405180910390fd5b61095287878080601f01602080910402602001604051908101604052809392919081815260200183838082843760009201919091525050604080516020601f8b018190048102820181019092528981529250899150889081908401838280828437600092019190915250889250879150610ef79050565b5050505050505050565b600054610100900460ff161580801561097c5750600054600160ff909116105b806109965750303b158015610996575060005460ff166001145b610a085760405162461bcd60e51b815260206004820152602e60248201527f496e697469616c697a61626c653a20636f6e747261637420697320616c72656160448201527f647920696e697469616c697a6564000000000000000000000000000000000000606482015260840161077f565b6000805460ff191660011790558015610a2b576000805461ff0019166101001790555b60c980546001600160a01b038087167fffffffffffffffffffffffff00000000000000000000000000000000000000009283161790925560ca805492861692909116919091179055610a9d7fddaa901e2fe3bda354fe0ede2785152d5c109282a613fe024a056a3e66c41bb383610db3565b610ac77fddaa901e2fe3bda354fe0ede2785152d5c109282a613fe024a056a3e66c41bb330610db3565b8015610b0d576000805461ff0019169055604051600181527f7f26b83ff96e1f2b6a682f133852f6798a09c465da95921460cefb38474024989060200160405180910390a15b50505050565b600082815260656020526040902060010154610b2e81610b38565b6106f08383610e56565b610b4981610b44610da4565b610fd7565b50565b604051606082811b6bffffffffffffffffffffffff191660208301529060009060340160408051601f198184030181528282528051838301909252601083527f303132333435363738396162636465660000000000000000000000000000000060208401528051909350909190600090610bc79060026119aa565b610bd29060026119c9565b67ffffffffffffffff811115610bea57610bea611565565b6040519080825280601f01601f191660200182016040528015610c14576020820181803683370190505b509050600360fc1b81600081518110610c2f57610c2f6119e1565b60200101906001600160f81b031916908160001a905350600f60fb1b81600181518110610c5e57610c5e6119e1565b60200101906001600160f81b031916908160001a90535060005b83811015610d9a57826004868381518110610c9557610c956119e1565b016020015182516001600160f81b031990911690911c60f81c908110610cbd57610cbd6119e1565b01602001516001600160f81b03191682610cd88360026119aa565b610ce39060026119c9565b81518110610cf357610cf36119e1565b60200101906001600160f81b031916908160001a90535082858281518110610d1d57610d1d6119e1565b602091010151815160f89190911c600f16908110610d3d57610d3d6119e1565b01602001516001600160f81b03191682610d588360026119aa565b610d639060036119c9565b81518110610d7357610d736119e1565b60200101906001600160f81b031916908160001a905350610d93816119f7565b9050610c78565b5095945050505050565b6000610dae61104c565b905090565b60008281526065602090815260408083206001600160a01b038516845290915290205460ff166107925760008281526065602090815260408083206001600160a01b03851684529091529020805460ff19166001179055610e12610da4565b6001600160a01b0316816001600160a01b0316837f2f8788117e7eff1d82e926ec794901d17c78024a50270940304540a733656f0d60405160405180910390a45050565b60008281526065602090815260408083206001600160a01b038516845290915290205460ff16156107925760008281526065602090815260408083206001600160a01b03851684529091529020805460ff19169055610eb3610da4565b6001600160a01b0316816001600160a01b0316837ff6391f5c32d9c69d2a47ea670b442974b53935d1edc7fd64eb21e047a839171b60405160405180910390a45050565b610f247fddaa901e2fe3bda354fe0ede2785152d5c109282a613fe024a056a3e66c41bb361031485611091565b610f705760405162461bcd60e51b815260206004820152601160248201527f21756e7472757374656420736f75726365000000000000000000000000000000604482015260640161077f565b60008080610f8084860186611a12565b6040517f24c234530000000000000000000000000000000000000000000000000000000081526001600160a01b038084166004830152602482018390529396509194509250908416906324c234539060440161069d565b60008281526065602090815260408083206001600160a01b038516845290915290205460ff166107925761100a81611210565b611015836020611222565b604051602001611026929190611a53565b60408051601f198184030181529082905262461bcd60e51b825261077f91600401611ad4565b60007f00000000000000000000000000000000000000000000000000000000000000006001600160a01b031633141561108c575060131936013560601c90565b503390565b6000808290506000808251602a1415806110d15750826000815181106110b9576110b96119e1565b6020910101516001600160f81b031916600360fc1b14155b806111025750826001815181106110ea576110ea6119e1565b6020910101516001600160f81b031916600f60fb1b14155b1561112057604051636fa478cf60e11b815260040160405180910390fd5b60025b602a8110156112065783818151811061113e5761113e6119e1565b016020015160f81c91506061821080159061115d575060668260ff1611155b156111745761116d605783611ae7565b91506111dd565b60418260ff161015801561118c575060468260ff1611155b1561119c5761116d603783611ae7565b60308260ff16101580156111b4575060398260ff1611155b156111c45761116d603083611ae7565b604051636fa478cf60e11b815260040160405180910390fd5b60026111ea826029611b0a565b60ff8416911b1b92909217916111ff816119f7565b9050611123565b5090949350505050565b60606104276001600160a01b03831660145b606060006112318360026119aa565b61123c9060026119c9565b67ffffffffffffffff81111561125457611254611565565b6040519080825280601f01601f19166020018201604052801561127e576020820181803683370190505b509050600360fc1b81600081518110611299576112996119e1565b60200101906001600160f81b031916908160001a905350600f60fb1b816001815181106112c8576112c86119e1565b60200101906001600160f81b031916908160001a90535060006112ec8460026119aa565b6112f79060016119c9565b90505b600181111561137c577f303132333435363738396162636465660000000000000000000000000000000085600f1660108110611338576113386119e1565b1a60f81b82828151811061134e5761134e6119e1565b60200101906001600160f81b031916908160001a90535060049490941c9361137581611b21565b90506112fa565b5083156113cb5760405162461bcd60e51b815260206004820181905260248201527f537472696e67733a20686578206c656e67746820696e73756666696369656e74604482015260640161077f565b9392505050565b6000602082840312156113e457600080fd5b81357fffffffff00000000000000000000000000000000000000000000000000000000811681146113cb57600080fd5b60008083601f84011261142657600080fd5b50813567ffffffffffffffff81111561143e57600080fd5b60208301915083602082850101111561145657600080fd5b9250929050565b60008060008060008060008060008060c08b8d03121561147c57600080fd5b8a35995060208b013567ffffffffffffffff8082111561149b57600080fd5b6114a78e838f01611414565b909b50995060408d01359150808211156114c057600080fd5b6114cc8e838f01611414565b909950975060608d01359150808211156114e557600080fd5b6114f18e838f01611414565b909750955060808d013591508082111561150a57600080fd5b506115178d828e01611414565b9150809450508092505060a08b013590509295989b9194979a5092959850565b60006020828403121561154957600080fd5b5035919050565b6001600160a01b0381168114610b4957600080fd5b634e487b7160e01b600052604160045260246000fd5b600080600080600060a0868803121561159357600080fd5b853561159e81611550565b945060208601356115ae81611550565b935060408601359250606086013567ffffffffffffffff808211156115d257600080fd5b818801915088601f8301126115e657600080fd5b8135818111156115f8576115f8611565565b604051601f8201601f19908116603f0116810190838211818310171561162057611620611565565b816040528281528b602084870101111561163957600080fd5b82602086016020830137600092810160200192909252509699959850939660800135949350505050565b6000806040838503121561167657600080fd5b82359150602083013561168881611550565b809150509250929050565b60008060008060008060006080888a0312156116ae57600080fd5b87359650602088013567ffffffffffffffff808211156116cd57600080fd5b6116d98b838c01611414565b909850965060408a01359150808211156116f257600080fd5b6116fe8b838c01611414565b909650945060608a013591508082111561171757600080fd5b506117248a828b01611414565b989b979a50959850939692959293505050565b60006020828403121561174957600080fd5b81356113cb81611550565b60008060006060848603121561176957600080fd5b833561177481611550565b9250602084013561178481611550565b9150604084013561179481611550565b809150509250925092565b8183823760009101908152919050565b81835281816020850137506000828201602090810191909152601f909101601f19169091010190565b89815260c0602082015260006117f260c083018a8c6117af565b828103604084015261180581898b6117af565b905086606084015282810360808401526118208186886117af565b9150508260a08301529a9950505050505050505050565b60006020828403121561184957600080fd5b815180151581146113cb57600080fd5b60005b8381101561187457818101518382015260200161185c565b83811115610b0d5750506000910152565b6000815180845261189d816020860160208601611859565b601f01601f19169290920160200192915050565b60006001600160a01b03808816835260a060208401526118d460a0840188611885565b83810360408501526118e68188611885565b905083810360608501526118fa8187611885565b9250508084166080840152509695505050505050565b6060815260006119236060830186611885565b82810360208401526119358186611885565b905082810360408401526119498185611885565b9695505050505050565b86815260806020820152600061196d6080830187896117af565b82810360408401526119808186886117af565b915050826060830152979650505050505050565b634e487b7160e01b600052601160045260246000fd5b60008160001904831182151516156119c4576119c4611994565b500290565b600082198211156119dc576119dc611994565b500190565b634e487b7160e01b600052603260045260246000fd5b6000600019821415611a0b57611a0b611994565b5060010190565b600080600060608486031215611a2757600080fd5b8335611a3281611550565b92506020840135611a4281611550565b929592945050506040919091013590565b7f416363657373436f6e74726f6c3a206163636f756e7420000000000000000000815260008351611a8b816017850160208801611859565b7f206973206d697373696e6720726f6c65200000000000000000000000000000006017918401918201528351611ac8816028840160208801611859565b01602801949350505050565b6020815260006113cb6020830184611885565b600060ff821660ff841680821015611b0157611b01611994565b90039392505050565b600082821015611b1c57611b1c611994565b500390565b600081611b3057611b30611994565b50600019019056fea26469706673582212202a530b61e3ad2440c82010fe9223a01d58d41f3e1e971ed458bd3158ee8639c164736f6c63430008090033",
  "linkReferences": {},
  "deployedLinkReferences": {}
}